:0600000002006902082A5B
:03000B0002084B9D
:0300130002082CB4
:03001B0002084D8B
:030023000209626D
:03002B0002084F79
:030033000208516F
:03003B0002096354
:03004300020100B7
:03004B0002082B7D
:03005300020100A7
:03005B0002082D6B
:0300630002082E62
:0600C20075090002006652
:030066000204246D
:2001C100E508600790E6A07481F0227508012290E6B8E0FFE4BF400104FE602290E6B9E089
:2001E100FDBDA81A75080090E680E043E008F090000A12093C90E680E053E0F7F022EE60C3
:200201001890E6B9E0FDBDB01090E6BAE0F50975080090E6A07480F022E4BFC00104FD70C0
:2002210006EE700302033490E6B9E0FCBCA2028008BCA9028003020334EF235401F50AE4BD
:20024100BCA90104F50B600679517A00800479507A00890C90E6BAE0F50DA3E0F50E90E61F
:20026100BEE0F9A3E0FB750800E94B7003020333C3E99440EB9400500689028B0480047A9F
:20028100407C00E50A604990E6A0E020E1F97523407524E77525008A26752700850D2185A3
:2002A1000E22850B28850C82120439E582700990E6A07481F002033390E6B57401F090E6DA
:2002C1008AE4F090E68BEAF090E6A07480F0804A90E6B57401F090E68AE4F090E68BF0903B
:2002E100E6A07480F090E6A0E020E1F9752D40752EE7752F008A30753100850D2B850E2CB7
:20030100850B328509337534A6850C821204B9E582700790E6A07481F0228A047A00E9C379
:200321009CF9EB9AFBEC250DF50DEA350EF50E02026A22ED7006EE700302041D90E6B9E0D1
:20034100FEBEA302800302041DEF235401FF90E6BAE0FDA3E0FE90E6BEE0FBA3E0FC750896
:2003610000EB4C700302041CC3EB9440EC940050068B018C02800479407A00EF604690E67C
:20038100A0E020E1F98D468E47894875490090E740C007C006C005C004C003C00112061B27
:2003A100D001D003D004D005D006D00790E6B57401F090E68AE4F090E68BE9F090E6A0747A
:2003C10080F0804590E6B57401F090E68AE4F090E68BF090E6A07480F090E6A0E020E1F9A8
:2003E1008D828E837546407547E78B488C49C007C006C005C004C003C00112061BD001D028
:2004010003D004D005D006D0077A00EBC399FBEC9AFCE92DFDEA3EFE0203622290E6A074F8
:1804210081F02290E6007412F0758200120983E50860FC1201D080F70C
:2010F60012010002FFFFFF40B40413860000010200010904000000FFFFFF0009020000011D
:20111600010080320811000011112E114811F6100000011E11022011776869746571756162
:20113600726B407768697465717561726B2E6F7267004658322073657269657320437970FA
:16115600726573732D636C61737320626F6F746C6F616465720038
:20043900C007C006C005AF82E528600AAE228E29AE218E2A8004AE218E29EF2FFFF58212EB
:20045900067FE582604DE528FD3395E0FE74012DF510E43EF51190002975F0401206B3E55D
:20047900826030EF3395E0FE4307018F8212067FE582601F85261285271385238285248311
:200499008525F012072AE5827004F582800B7582018006120697758200D005D006D00722C1
:2004B900C007C006C005C004C003C002C001C000AF82E4F535F536EF2FFFF58212067FE58D
:2004D9008270030205F5AC338CF005F07B017C008006EB2BFBEC33FCD5F0F7C3E5359530BA
:2004F900E536953140030205F5E532600AAA2C8A37AA2B8A388004AA2B8A37E532FA339521
:20051900E0FE74012AF510E43EF51190003775F0401206B3E58270030205F5C0078B058C28
:20053900068D468E47852B82852C83C006C005C004C003C001C000120853AA82AF83D00060
:20055900D001D003D004D005D006EDC39AF539EE9FF53AE530C39535FEE5319536FFC3EEFA
:200579009539EF953AD007500DE530C39535F539E5319536F53AE535252DFAE536352EFDE1
:20059900AE2F853910853A118A828D838EF01206B3E5826047120697E5827004F582805182
:2005B9007E00E5346006C3EE9534500C8F8212067FE58270030E80EAEEB534057582008002
:2005D90030E539252BF52BE53A352CF52CE5392535F535E53A3536F5360204F4120697E5BE
:2005F90030B53508E531B53603D38001C3E433F582D000D001D002D003D004D005D006D082
:020619000722B6
:20061B00AA82AB83AC46AD47AE48AF49EE60010FEF601775AF078A9B8B9A8C9E8D9D90E68E
:0B063B007CE090E67BF0DEF6DFF422AE
:20064600C007AF8290E678E020E00CE50F60F5750F00758200801F90E678E030E205758283
:20066600008013EF600D90E678E0FFA2E1E433F5828003758201D00722C007AF8290E6784D
:200686007480F090E679EFF0758201120646D0072290E678E030E2047582002290E67874F4
:2006A60040F090E678E020E6F975820122C007C006C005C004C003C002C001C000AD82AE24
:2006C60083AFF0E5104511700575820180457B007C00EBB51006ECB511028027EB2DF8EC71
:2006E6003EF98F02888289838AF0120967F890E679F0758201120646E58260070BBB00D287
:200706000C80CFEBB51007ECB51103D38001C3E433F582D000D001D002D003D004D005D0A8
:2007260006D00722C007C006C005C004C003C002C001C00085821485831585F016E5124599
:200746001370067582010208197401B5120614B513028002800690E6787420F090E679E086
:200766007B007C0079007A00E9B51207EAB513030207F6758200120646E5827003020809DC
:20078600740229F8E43AFFE8B5120AEFB5130690E6787420F0740129FEE43AFFEEB5122C1D
:2007A600EFB5132875AF03759AE6759B7890E67B7440F0E0AFE0E92514F8EA3515FDAE169D
:2007C60088828D838EF0EF12082F8018E92514FDEA3515FEAF1690E679E0F88D828E838F1F
:2007E600F012082F09B900010A89038A0402076E90E678E030E205758200801790E678E01B
:2008060020E6F9EBB51207ECB51303D38001C3E433F582D000D001D002D003D004D005D0FF
:0408260006D00722CF
:06009800E478FFF6D8FD3C
:01082A00329B
:01082B00329A
:01082C003299
:200076007900E94400601B7A00901170780075923EE493F2A308B800020592D9F4DAF2758E
:0200960092FFD7
:01082D003298
:01082E003297
:03010000020A2CC4
:0301040002096489
:030108000208A446
:03010C0002096085
:030110000209667B
:0301140002106C6A
:030118000208A139
:03011C000201B825
:030120000208AB27
:0301240002106A5C
:030128000208AC1E
:03012C0002106B53
:0301300002109723
:0301340002084A74
:0301380002084C6E
:03013C0002085066
:030140000208A80A
:030144000201B8FD
:030148000210643E
:03014C0002106539
:0301500002106634
:030154000210672F
:030158000210682A
:03015C0002106925
:030160000209652C
:030164000201B8DD
:030168000201B8D9
:03016C000201B8D5
:030170000208AAD8
:030174000208ADD1
:030178000208AFCB
:03017C000208B1C5
:030180000208AEC4
:030184000208B0BE
:030188000208B2B8
:03018C0002096104
:0301900002085210
:030194000208A2BC
:030198000208A5B5
:03019C000208A7AF
:0301A0000208A0B2
:0301A4000208A3AB
:0301A8000208A6A4
:0301AC000208A99D
:0301B00002084EF4
:0301B40002108AAC
:0101B8003214
:1B082F0020F71130F6138883A88220F509F6A8837583002280FEF280F5F022C8
:01084A00327B
:01084B00327A
:01084C003279
:01084D003278
:01084E003277
:01084F003276
:010850003275
:010851003274
:010852003273
:20085300E546454760467A01E54625E0F546E547334012F547E5829546E583954740030A82
:2008730080E6C3E54713F547E54613F546C3E5829546F5F0E58395474005F58385F082C3A3
:0D089300E54713F547E54613F546DAE12287
:0108A0003225
:20009E007800E84400600A790075923EE4F309D8FC7800E84400600C7900903E00E4F0A3F4
:0400BE00D8FCD9FA97
:0108A1003224
:0108A2003223
:0108A3003222
:0108A4003221
:0108A5003220
:0108A600321F
:0108A700321E
:0108A800321D
:0108A900321C
:0108AA00321B
:0108AB00321A
:0108AC003219
:0108AD003218
:0108AE003217
:0108AF003216
:0108B0003215
:0108B1003214
:0108B2003213
:2008B300E583700BE58224FA400122B4001122E5826003D5E0FD0075E0FED583F674F9D514
:2008D300E0FD22C007C006C001C000AE82AF83EE2EF8EF33F9EE28FEEF39FF90E600E0F8DE
:2008F300794C20E416C3EF13CE13CEFF795AE820E309C3EF13CE13CEFF7963E58124FAF801
:20091300E926C313C313F9C3EE99F582EF9400F583D000D001D006D0075001220208B37462
:2009330011C0E01208D6158122C007C006AE82AF837411C0E0EE4F600D1EBEFF011F9003FF
:0D095300E81208D680EF1581D006D00722EB
:010960003264
:010961003263
:010962003262
:010963003261
:010964003260
:01096500325F
:01096600325E
:0D006900758151121086E582600302006669
:1C09670020F71430F6148883A88220F507E6A88375830022E280F7E49322E0229F
:20098300AF82753C00753D00D2E890E668E043E008F090E65CE043E001F090E65D7401F02F
:2009A300D2AF90E680E020E10890E680E043E002F0EF600E90E680E043E008F090000A12EF
:2009C300093C90E680E053E0F7F022AF82BF00028037BF01028036BF02028039BF040280DB
:2009E30038BF06028037BF08028036BF80028019BF8102801CBF8202801BBF8402801ABF8B
:200A030086028019BF881E801890E6A02290E6A12290E6A22290E6A32290E6A42290E6A578
:200A23002290E6A62290000022C020C0E0C0F0C082C083C007C006C005C004C003C002C091
:200A430001C000C0D075D000C08675860090E6B8E0FFE4BF800104FE601990E6B9E0FDBD47
:200A6300061190E6BAE0FCA3E0F5828C1812108B020CA3EF702790E6B9E0FDBD091F90E667
:200A8300BAE0F5821210D8E582600990E6A07480F0020CA390E6A07481F0020CA3EE600EC5
:200AA30090E6B9E0FDBD08061210BC020CA38F05BD012E90E6B9E0FDBD0B2690E6BCE0FD44
:200AC30090E6BAE0F5178D8212106DE582600990E6A07480F0020CA390E6A07481F0020CD5
:200AE300A3E4BF810104FD601490E6B9E0FCBC0A0C90E6BCE0F5821210A2020CA3EF703646
:200B030090E6B9E0FCBC032E90E6BAE0FBA3E0FCBB010FBC000C753C0190E6A07480F0020F
:200B23000CA3BB0205BC00028003020CA390E6A07480F0020CA3EE603290E6B9E0702CAECB
:200B43003BE53C25E0FC420690E740EEF090E741E4F090E6B504F090E68AE4F090E68B7464
:200B630002F090E6A07480F0020CA3ED602890E6B9E0702290E740E4F090E741F090E6B561
:200B830004F090E68AE4F090E68B7402F090E6A07480F0020CA3BF02028003020C4E90E660
:200BA300B9E0FEBE03028008BE01028003020C4E90E6BAE0FDA3E0FE4D6003020CA390E64B
:200BC300BCE0F5821209CEAD82AE83ED4E7003020CA390E6B9E0FCBC03188D828E83E0FC79
:200BE3004304018D828E83ECF090E6A07480F0020CA390E6BCE0F582C006C005121098E550
:200C030082D005D0067003020CA38D828E83E0FC5304FE8D828E83ECF090E6BCE0FDA3E0A1
:200C2300740F5DFB7C00530580E4C423CDC423541F6DCD541FCD6DCDFEED4203EE420490E8
:200C4300E683EBF0E043E020F08055BF824C90E6B9E0704690E6BCE0F5821209CEAE82AFC2
:200C630083EE4F603B8E828F83E0FE5306017F00EE4FB40100B3E433FF90E740F090E74123
:200C8300E4F090E6B504F090E68AE4F090E68B7402F090E6A07480F0800690E6B81201C1A1
:200CA3005391EF90E65D7401F0D086D0D0D000D001D002D003D004D005D006D007D083D071
:200CC30082D0F0D0E0D02032AE82AF837401B54228E54370248E828F83E493FCA3E493FD9F
:200CE3008C468D478C828D83E493FC8C4875490090E00012061B020F137406B54238E54390
:200D030070348E828F83A3A3E493FCA3E493FD4C700790E6A07481F0228C028D038A468BE1
:200D2300478C828D83E493FC8C4875490090E00012061B020F137402B542028003020E3F3E
:200D43008E828F83A3A3A3A3E493FDC3E5439D4003020E3F8E828F83A3A3A3A3A3E493FC90
:200D6300A3E493FDE54375F002A42CF582ED35F0F583E493FCA3E493FD74092CFAE43DFBB0
:200D83008C008D01884689478C828D83E493F9894875490090E000C005C004C003C00212EB
:200DA300061BD002D003D004D0058C828D83E4932400FCE434E0FD8C448D458A828B83E477
:200DC30093F8A3E493F98846894788828983E493F88848754900854482854583C005C004A0
:200DE300C003C00212061BD002D003D004D0058A828B83E493F8A3E493F988828983E493C1
:200E03002CFCE43DFD74022AFAE43BFB8A828B83E493F8A3E493F948709D90E002E0FAA3F5
:200E2300E0FB4A6003020F13ECC39400FCED94E0FD90E002ECF0EDA3F0020F137403B54206
:200E43000474018001E4FD601EE543701A75466C75471190116CE493FC8C4875490090E00E
:200E63000012061B020F13ED7003020F0CAC437D00EC24FFFAED34FFFB74072EF582E43FC8
:200E8300F583E493F87900C3EA98EB648089F063F08095F0507374082EF582E43FF583E4A7
:200EA30093FEA3E493FF1CBCFF011DEC2CFCED33FDEC2EF582ED3FF583E493FEA3E493FF9C
:200EC30090E0007402F090E00104F074012401FCE434E0FD8E828F83E493FB60330EBE0056
:200EE300010F8C828D83EBF074012CFAE43DFB8A828B83E4F0042AFCE43BFD90E000E0FBB0
:200F03000B0B90E000EBF080CB90E6A07481F0227E007FE090E6B57401F090E6B3EFF09000
:200F2300E6B4EEF090E6A07480F022AE82AF83A3A3A3A3A3E493FCA3E493FD74042EF55014
:200F4300E43FF551754800855082855183E493FAC3E5489A400122E54875F002A42CF5827F
:200F6300ED35F0F583E493F549A3E493F54A74092549F54BE4354AF54C7900854982854A6F
:200F830083A3A3A3A3A3E493FAB53D02800302105FA84BAA4CC004C00588828A83E493FB48
:200FA300A3E493FD8B828D83A3E493F54D7404B54D028006D005D0048039D005D004888287
:200FC3008A83E493F54EA3E493F54F854E82854F83A3A3E493B54611854E82854F83A3A382
:200FE300A3E493FBB5470280047B0080027B018B0180517405B54D4CE96049C004C0058817
:20100300828A83E493FBA3E493FD8B828D83A3A3E493FD740F5DFB7F00530580E423CDC414
:2010230023541F6DCD541FCD6DCD30E40244E0FCED4203EC420790E683EBF0E043E020F0DF
:20104300D005D004740228F8E43AFA88828A83E493FEA3E493FF4E6003020F980548020FD9
:011063004A42
:04116C00040309046B
:011064003259
:011065003258
:011066003257
:011067003256
:011068003255
:011069003254
:01106A003253
:01106B003252
:01106C003251
:19106D00AF82E517700F8F46851747901124120F2E7582012275820022BF
:04108600758200224D
:01108A003233
:0C108B00858242851843901124020CCB92
:011097003226
:0A10980090E6A07480F0758201223A
:1A10A20090E740E4F090E6B504F090E68AE4F090E68B04F090E6A003F02296
:1C10BC0090E740E53DF090E6B57401F090E68AE4F090E68B04F090E6A003F022CB
:1E10D800E582FF6003BF01128F3D7546FF7547FF901124120F2E7582012275820022D7
:00000001FF
