:10000000D9C100000C94A7200C94FD20F0C1000081
:10001000EEC10000ECC10000EAC10000E8C1000030
:10002000E6C10000E4C100000C94721C0C94091B92
:10003000DEC10000DCC10000DAC10000D8C1000050
:10004000D6C100000C94A813D2C10000D0C100009A
:10005000CEC10000CCC10000CAC100000C94C52C68
:10006000C6C10000C4C10000C2C10000C0C1000080
:10007000BEC10000BCC10000BAC10000B8C1000090
:10008000B6C100000C945E2BB2C10000B0C10000EC
:100090000C94E516ACC10000AAC10000A8C1000084
:1000A000A6C10000A4C10000A2C10000EA17ED171C
:1000B000ED17ED17ED17ED17ED17ED170517ED1708
:1000C000ED17ED17ED17ED17ED17ED170517ED17F8
:1000D000ED17ED17ED17ED17ED17ED170D17ED17E0
:1000E000ED17ED17ED17ED17ED17ED173217ED17AB
:1000F000ED17ED17ED17ED17ED17ED170D17ED17C0
:10010000ED17ED17ED17ED17ED17ED173717ED1785
:10011000ED17ED17ED17ED17ED17ED173C17ED1770
:10012000ED17ED17ED17ED17ED17ED174D17ED174F
:10013000ED17ED17ED17ED17ED17ED177617ED1716
:10014000ED17ED17ED17ED17ED17ED174117ED173B
:10015000ED17ED17ED17ED17ED17ED175B17ED1711
:10016000ED17ED17ED17ED17ED17ED177817ED17E4
:10017000ED17ED17ED17ED17ED17ED177817ED17D4
:10018000ED17ED17ED17ED17ED17ED177817ED17C4
:10019000ED17ED17ED17ED17ED17ED177817ED17B4
:1001A000ED17ED17ED17ED17ED17ED178117ED179B
:1001B000ED17ED17ED17ED17ED17ED17B117ED175B
:1001C000ED17ED17ED17ED17ED17ED178117ED177B
:1001D000ED17ED17ED17ED17ED17ED17B117ED173B
:1001E000ED17ED17ED17ED17ED17ED179917ED1743
:1001F000ED17ED17ED17ED17ED17ED17B517ED1717
:10020000ED17ED17ED17ED17ED17ED17B517ED1706
:10021000ED17ED17ED17ED17ED17ED17CA17ED17E1
:10022000ED17ED17ED17ED17ED17ED17E417ED17B7
:10023000ED17ED17ED17ED17ED17ED17E417080B98
:100240000002020201000904000001020200000590
:1002500024001001052401010104240206052406DE
:1002600000010705810310004009040100020A0093
:10027000000007050202400000070583024000005D
:10028000005EBCE2613FDD83C29C7E20A3FD1F4176
:100290009DC3217FFCA2401E5F01E3BD3E6082DC66
:1002A000237D9FC1421CFEA0E1BF5D0380DE3C6256
:1002B000BEE0025CDF81633D7C22C09E1D43A1FF46
:1002C0004618FAA427799BC584DA3866E5BB590736
:1002D000DB856739BAE406581947A5FB7826C49A26
:1002E000653BD987045AB8E6A7F91B45C6987A2416
:1002F000F8A6441A99C7257B3A6486D85B05E7B906
:100300008CD2306EEDB3510F4E10F2AC2F7193CDF5
:10031000114FADF3702ECC92D38D6F31B2EC0E50E5
:10032000AFF1134DCE90722C6D33D18F0C52B0EED5
:10033000326C8ED0530DEFB1F0AE4C1291CF2D73C5
:10034000CA947628ABF517490856B4EA6937D58BB5
:100350005709EBB536688AD495CB2977F4AA4816A5
:10036000E9B7550B88D6346A2B7597C94A14F6A895
:10037000742AC896154BA9F7B6E80A54D7896B3585
:1003800012010002EF020140412336800001010208
:10039000030141726475696E6F204C4C43004172D9
:1003A0006475696E6F204C656F6E6172646F0004D6
:1003B0000309040011241FBECFEFDAE0DEBFCDBF7A
:1003C00012E0A0E0B1E0EAE9F5E602C005900D9286
:1003D000A435B107D9F726E0A4E5B2E001C01D922B
:1003E000A93CB207E1F70E940F2D0C94CB3208CE46
:1003F00060E08091C3040E945E2961E08091040561
:100400000E945E2961E08091C3040E945E2960E041
:100410008091C3040E945E2960E0809104050E94DF
:100420005E2988E490E00C94A11E0895CF93DF9399
:1004300000D000D000D0CDB7DEB78093C304609366
:10044000040596E0E1E2F1E0DE01119601900D92E3
:100450009A95E1F7E1E0F0E0EC0FFD1FE40FF11DEC
:1004600090819093280561E070E00E94052961E089
:1004700070E0809104050E940529BADF26960FB628
:10048000F894DEBF0FBECDBFDF91CF910895CF921C
:10049000DF92EF92FF920F931F93CF93DF938C0124
:1004A0008091540281110EC00E94B92C60931105F5
:1004B00070931205809313059093140581E0809347
:1004C000540241C00E94B92C60931805709319051D
:1004D00080931A0590931B05C0901105D0901205CA
:1004E000E0901305F0901405DC01CB018C199D09F7
:1004F000AE09BF09893B9B40A105B10520F178DF1A
:100500001092540220C08AE090E00E94A11E8091C7
:1005100028050E94BE298993999382E390E00E9466
:10052000A11E61E08091C3040E945E2982E190E0F7
:100530000E94A11E60E08091C3040E945E29C01742
:10054000D10709F704C0E801025F1F4FDCCFDF913C
:10055000CF911F910F91FF90EF90DF90CF90089572
:10056000FC0190819E5F908342E450E06EE372E074
:1005700080E80C94AC1A0895EEEFFFE725913491D2
:1005800081E02B3F3C4D09F080E00895CF93DF934D
:10059000CDB7DEB728970FB6F894DEBF0FBECDBF3C
:1005A000E22F29833A834B835C836D837E838F8321
:1005B0009887E13A61F4313209F086C047E050E0B3
:1005C0006CE071E080E00E94AC1A81E084C0E1320E
:1005D00009F07CC08B81333279F42C8190E0922B2E
:1005E000A0E0B0E08093080190930901A0930A0174
:1005F000B0930B0181E06FC0303241F467E070E0EE
:100600008CE091E00E94D51A81E065C0323209F099
:100610005FC080931301B0DF882319F0EEEFFAE09A
:1006200002C0E0E0F8E080910C0190910D01A091F2
:100630000E01B0910F01803B9440A105B10531F549
:100640008091130180FD22C0EE3F4AE0F40751F093
:1006500080819181873727E7920721F09093FF0AE5
:100660008093FE0A87E797E79183808380916000FB
:10067000809355029BE088E10FB6F894A89580938B
:1006800060000FBE9093600081E025C08081918161
:1006900087379747F9F4A895A0E6B0E08C91886178
:1006A0008C93809155028C93EE3F8AE0F80741F0DD
:1006B0008091FE0A9091FF0A9183808381E00BC0B4
:1006C0001182108281E007C080E005C080E003C095
:1006D00081E001C081E028960FB6F894DEBF0FBE1E
:1006E000CDBFDF91CF91089520911301222389F08E
:1006F000AB01BC0183E00E94CB19181619068CF0DF
:1007000081E090E0909307018093060180E090E003
:10071000089581E090E0909307018093060180E0C6
:1007200090E00895CF93DF931F92CDB7DEB7898312
:1007300061E070E0CE010196D7DF0F90DF91CF919D
:1007400008951092800085E08093810010928200CD
:10075000109285001092840010926F00089580918D
:10076000560290915702A0915802B0915902892BDC
:100770008A2B8B2B09F46BC080EF0E94281D8DE023
:100780000E94281D80E00E94281D80912B050E9458
:10079000281D809156028F770E94281D8091560255
:1007A00090915702A0915802B0915902689416F89E
:1007B000B695A795979587951694D1F78F770E9450
:1007C000281D8091560290915702A0915802B09135
:1007D0005902072E7EE0B695A795979587957A954D
:1007E000D1F7702D8F770E94281D8091560290912D
:1007F0005702A0915802B0915902072E75E1B695A3
:10080000A795979587957A95D1F7702D8F770E9448
:10081000281D8091560290915702A0915802B091E4
:100820005902072E7CE1B695A795979587957A95FD
:10083000D1F7702D0E94281D87EF0E94281D10926D
:1008400056021092570210925802109259020895BF
:1008500080912B050E948D298823D1F3E4E8F0E0F4
:100860008081918190935F0280935E021182108259
:1008700080915E0290915F0207970497F8F480914F
:100880002B050E948D298111FACFE4E8F0E08081E8
:10089000918190935F0280935E0211821082809119
:1008A0005E0290915F029C0127503109243031058E
:1008B00038F04997039730F08FEF08958FEF089540
:1008C00080E0089581E008950F931F93CF93DF9305
:1008D000109256021092570210925802109259022A
:1008E000C8E0D0E0B5DF81114DC02197D9F7C6E04F
:1008F000D0E0AEDF813009F045C02197D1F7A8DF05
:10090000811140C0A5DF813009F03CC0CFE0D0E0CC
:1009100001E010E09DDF8130F9F4C8010C2E02C027
:10092000880F991F0A94E2F7092E000CAA0BBB0B43
:1009300040915602509157026091580270915902AD
:10094000842B952BA62BB72B80935602909357029E
:10095000A0935802B09359022197E0F68091560275
:1009600090915702A0915802B0915902AA27BB2733
:10097000A350BF4F8093560290935702A093580202
:10098000B0935902DF91CF911F910F910895CF93AA
:10099000DF9380932B051092850010928400C4E8A9
:1009A000D0E012C0888199818B31964068F080E058
:1009B0009FEFA0E0B0E08093560290935702A0937F
:1009C0005802B093590251C080912B050E948D2985
:1009D0008111E8CF109285001092840080912B0540
:1009E0000E948D298823D1F3E4E8F0E08081918191
:1009F00090935F0280935E021182108280915E026A
:100A000090915F028C589109049778F580912B059D
:100A10000E948D298111FACFE4E8F0E08081918174
:100A200090935F0280935E021182108280915E0239
:100A300090915F029C01245431092530310510F456
:100A400043DF13C08297039780F480912B050E94A7
:100A50008D298823D1F3E4E8F0E08081918190939F
:100A60005F0280935E0211821082DF91CF91089520
:100A70008F929F92AF92BF92CF92DF92EF92FF92AE
:100A80001F93CF93DF936C01162F0E94391E4B01E9
:100A90005C01CAE5D2E00D2C000CEE08FF0861E015
:100AA000812F0E945E29888199810E94A11E60E0A9
:100AB000812F0E945E29888199810E94A11E0E9437
:100AC000391EDC01CB0188199909AA09BB098C15CB
:100AD0009D05AE05BF0518F3DF91CF911F91FF90E3
:100AE000EF90DF90CF90BF90AF909F908F90089540
:100AF0008F929F92AF92BF92CF92DF92EF92FF922E
:100B00006C01F62E0E94391E4B015C0160E08F2DB6
:100B10000E945E290D2C000CEE08FF080E94391E71
:100B2000DC01CB0188199909AA09BB098C159D051F
:100B3000AE05BF0598F3FF90EF90DF90CF90BF9088
:100B4000AF909F908F900895E62FF0E0E25CFE4F0B
:100B5000E0819E2F977041E050E09A0102C0220F81
:100B6000331F9A95E2F7F0E0F695E795F695E7954D
:100B7000F695E795BF01660F771FE60FF71FB09652
:100B8000922F90953281932392839181292B2183F7
:100B9000682F70E0CA010E947E30072E000C880B7F
:100BA000990B0E94B52E20E030E04AE754E40E9401
:100BB000A32F20E030E040EC50E40E94B22D0E94D0
:100BC000822E60935A0270935B0280935C02909332
:100BD0005D020895AF92BF92CF92DF92EF92FF92A3
:100BE0001F93CF93DF936B017C01142F5901642F66
:100BF00086E2AADF612F88E293E23ADF612F84E97F
:100C000091E176DF1A141B04ECF4C0E0D0E0FF2081
:100C10004CF4612F80E392E02BDF612F80E496E0BB
:100C200067DF08C0612F80E392E022DF612F80E35D
:100C300092E05EDFCC0CDD1CEE1CFF1C2196AC1696
:100C4000BD0629F7612F80E392E012DF612F80E07B
:100C500090E04EDFDF91CF911F91FF90EF90DF90FA
:100C6000CF90BF90AF900895AF92BF92CF92DF9296
:100C7000EF92FF920F931F93CF93DF936C01C62FD8
:100C8000D0E0FE01EE0FFF1FE658FD4F80819181FD
:100C9000009749F00E943B32FE01EE0FFF1FE6581D
:100CA000FD4F11821082FE01EE0FFF1FE05AFD4F33
:100CB00080819181009749F00E943B32FE01EE0F46
:100CC000FF1FE05AFD4F118210829091050580911F
:100CD0002105981719F084E090E002C083E090E0CD
:100CE0008C9D80018D9D100D9C9D100D11241093E5
:100CF000070500930605C8010E94A3317C01FE018F
:100D0000EE0FFF1FE658FD4F91838083892BF9F08A
:100D1000C8010E94A3315C01FE01EE0FFF1FE05AE3
:100D2000FD4F91838083892B91F0A80160E070E0F2
:100D3000C7010E94C432A80160E070E0C5010E94B2
:100D4000C432D0922A05C092290581E01BC0C70198
:100D50000E943B32CC0FDD1FFE01E658FD4F118291
:100D60001082C05ADD4F888199810E943B321982DE
:100D70001882109207051092060510922A0510920B
:100D8000290580E0DF91CF911F910F91FF90EF90A7
:100D9000DF90CF90BF90AF90089541E0209105057E
:100DA00090912105291340E0382F329536953695DC
:100DB000337030930505982F92959F7093709093A0
:100DC0002105282F26952695237020930E058370E4
:100DD00080931D0581E080932005E62FF0E0EE0F63
:100DE000FF1FE658FD4F0190F081E02DEF2B49F0F9
:100DF000391380E0481729F08091290590912A0540
:100E000033CF0895662321F1E82FF0E0EE5AFE4F2C
:100E1000E0812E2F277081E090E002C0880F991F9B
:100E20002A95E2F7F0E0F695E795F695E795F695C1
:100E3000E7959F01220F331FE20FF31FB096982F03
:100E400090952281922392839181892B81830895A9
:100E5000E82FF0E0EE5AFE4F8081E82FF0E0F695A3
:100E6000E795F695E795F695E7959F01220F331FD5
:100E7000E20FF31FB096282F277081E090E002C0A8
:100E8000880F991F2A95E2F7809591819823918385
:100E900092818923828308950F931F93CF93C82F44
:100EA00080914F038F3F99F0809123058C130FC0E1
:100EB00080912405909125058617970741F480912C
:100EC0002605841304C080912705821719F1822F0B
:100ED0008B01E3E2F5E0C083728361834383248363
:100EE00040931C056C2F59DF6C2FC801BDDEC82F45
:100EF000882371F080914F0388233CF061E082DF0A
:100F000060E080914F030E945E2981E08093170585
:100F10008C2F00C0CF911F910F910895CF93C82FB0
:100F200080911705882331F080914F03882314F0B6
:100F300060E068DFC0934F0380911705882339F084
:100F400061E08C2F5FDF60E08C2F0E945E298C2F88
:100F500090E0FC01E55DFD4FE081F0E0EE0FFF1F4A
:100F6000E35EFD4F2081318130931F0520931E05E4
:100F7000FC01E550FE4F80818093BE04CF9108951F
:100F80002F923F924F925F926F927F928F929F9299
:100F9000AF92BF92CF92DF92EF92FF920F931F9387
:100FA000CF93DF93CDB7DEB72C970FB6F894DEBFA3
:100FB0000FBECDBF222E332E4C875B875E2C4F2C6D
:100FC00028E631E040E050E00E9491306B017C0166
:100FD000662E7D2CE982FA82852C942CA02EB12ECF
:100FE00024E682169104A104B10438F00F2EF3E632
:100FF0008F2E912CA12CB12CF02DD501C401C297BC
:10100000A109B048880F991F99231CF491958195E7
:10101000910924E630E0281B390B032E000C440B09
:10102000550B622D732D8C859B856436710581056A
:10103000910520F063E670E080E090E00E944F3080
:10104000982F872F762F662720E137E240E050E087
:101050000E94913019012A01662D772D89819A818C
:101060002CE330E040E050E00E9491302A83298355
:101070003CE3239FC0011124092E000CAA0BBB0BDB
:10108000A7019601281B390B4A0B5B0B942F832F6A
:10109000722F66272CE330E040E050E00E94913050
:1010A0006A816170862F90E0982F88279A95280F83
:1010B000391F33231CF4319521953109C901330FB0
:1010C000AA0BBB0B40E051E060E070E09A01AB017D
:1010D000281B390B4A0B5B0BC201B1010E944F3038
:1010E000C72ED82EE92EFF2489818823B9F08130BC
:1010F000F1F0823039F1833081F18430B9F18530FB
:1011000009F03FC0CF82D886E986FA862B823C82DE
:101110004D825E82C12CD12C760133C02B823C8261
:101120004D825E821F82188619861A862AC0CB825B
:10113000DC82ED82FE82720161011F8218861986AF
:101140001A861FC0CF82D886E986FA8672016101AD
:101150001B821C821D821E8214C02F823886498603
:101160005A861B821C821D821E820BC02F823886EB
:1011700049865A86CB82DC82ED82FE82C12CD12C3C
:101180007601D501C401880F991FAA1FBB1F6627CE
:10119000782F892F9A2F24E630E040E050E00E941B
:1011A0009130DA01C90182199309A409B5098C01AA
:1011B0009D0136952795179507958B819C81AD816B
:1011C000BE81800F911FA21FB31F9927AA27BB279B
:1011D000DC0199278827C00ED11EE21EF31EFE2CCB
:1011E000ED2CDC2CCC24EE24FF248C299D29AE2967
:1011F000BF294F81588569857A85400F511F621F2D
:10120000731FBC01CD01642B2C960FB6F894DEBF82
:101210000FBECDBFDF91CF911F910F91FF90EF9047
:10122000DF90CF90BF90AF909F908F907F906F9006
:101230005F904F903F902F90089520912905309115
:101240002A056217730708F060C090910505409168
:10125000210594132BC0E82FF0E0EE0FFF1FE05A9A
:10126000FD4F9B01220F331F620F731F20813181BD
:10127000260F371F80910E05F901E80FF11D4081FF
:10128000F901E90FF11D6081862F90E0A0E0B0E048
:10129000DC0199278827942B40911D05F901E40F63
:1012A000F11D2081BC01CD01622B0895E82FF0E0F3
:1012B000EE0FFF1FE658FD4F660F771F660F771F73
:1012C00020813181260F371FF901E90FF11D50816F
:1012D000F901E40FF11D6081862F90E0A0E0B0E0FD
:1012E000DC0199278827B52B40911D05F901E40FF2
:1012F000F11D4081842B40910E05F901E40FF11D91
:101300002081BC01CD01722B089560E070E0CB011B
:1013100008951F93CF93DF93CDB7DEB729970FB60C
:10132000F894DEBF0FBECDBF182FF8DD8091060503
:10133000909107059A838983E12FF0E0EE0FFF1F5C
:10134000E658FD4F0190F081E02DDF01119680817C
:101350008B8380912005882309F43CC0E0911E0511
:10136000F0911F0590818091BE04982B9C83908101
:10137000809589238D838D81898788E08887F8947B
:101380005C816D81E0911E05F0911F054B813885D0
:10139000298589819A81508347FD252F3A9520839D
:1013A000262F39F0441F00C000006083000000C0F9
:1013B000F2CF38E04D9160830000019761F7F09320
:1013C0001F05E0931E054B83388729879A838983FD
:1013D000789440C0E0911E05F0911F0590818091A6
:1013E000BE04982B9C839081809589238D838D8169
:1013F0008F8388E08E835C816D814B813E812F815C
:1014000089819A81508347FD252F00C000C0208329
:1014100000C000C000C000C000C060830000262FD4
:101420003A9541F0441F000000C000C000C000C059
:1014300000C0E8CF38E04D9100C0608300C0019744
:1014400009F7F0931F05E0931E054B833E832F831E
:101450009A83898329960FB6F894DEBF0FBECDBF5D
:10146000DF91CF911F910895CF93DF9360931C0577
:101470002091290530912A05232B09F44DC0282FEE
:1014800030E0220F331FF901E658FD4F6081718172
:10149000F901E05AFD4F40815181E0E0F0E02091F8
:1014A000210530E0DB01A20FB31FEA01C20FD31FF9
:1014B000988120911C05929F900111243C932091CA
:1014C0000E0530E0DB01A20FB31FEA01C20FD31FEC
:1014D000988120911C05929F900111243C932091AA
:1014E0001D0530E0DB01A20FB31FEA01C20FD31FBD
:1014F000988120911C05929F900111243C93319674
:101500006D5F7F4F4D5F5F4F2091290530912A0518
:10151000E217F30720F2FDDEDF91CF9108952F92BD
:101520003F924F925F926F927F928F929F92AF9273
:10153000BF92CF92DF92EF92FF920F93CF93DF9300
:10154000E0912905F0912A056E177F0708F09BC0EE
:101550004A01AA24BB24432E542E652E7724909151
:101560000505E09121059E131BC0E82FF0E0DB018B
:10157000AA0FBB1FA60FB71FBF01660F771FFB0186
:10158000E658FD4F0190F081E02D1F012A0E3B1E11
:10159000FB01E05AFD4F608171816A0F7B1F3CC0E7
:1015A000E82FF0E0DB01AA0FBB1FAA0FBB1FBF0192
:1015B000660F771FFB01E658FD4F0190F081E02D8B
:1015C0001F012A0E3B1EFB01E05AFD4F6081718115
:1015D0006A0F7B1FC52EDD24EE24FF24D101A90F45
:1015E000B11DE0911C05EE2329F0CE9EF0011124DF
:1015F0009F2F01C09C2D9C9390910505FB01E90F45
:10160000F11D90911C05992329F0C99ED001112448
:101610009B2F01C09C2D908390912105FB01E90F28
:10162000F11D808290910E05FB01E90FF11D4082B2
:1016300090911D05FB01E90FF11D208390911C0580
:10164000C92FD0E08C9EB0018D9E700D11244C9E50
:10165000F0014D9EF00D11242C9FD0012D9FB00D57
:10166000112490912105E101C90FD11D788390913A
:101670000E05E101C90FD11DF88390911D05F101FF
:10168000E90FF11DB083011144DEDF91CF910F917D
:10169000FF90EF90DF90CF90BF90AF909F908F9092
:1016A0007F906F905F904F903F902F9008958F9212
:1016B0009F92AF92BF92DF92EF92FF920F931F9390
:1016C000CF93DF93D82E48015901772314F0552387
:1016D00044F44091290550912A054150510960E098
:1016E00070E0461757072CF4962F872FBA01492F21
:1016F000582F8091290590912A05009721F1772391
:1017000014F460E070E0EB018617970708F4EC0131
:101710007A01552314F4E12CF12C8E159F0508F461
:101720007C018FEFE81AF80ACE15DF0550F400E0CF
:10173000A5019401BE018D2DF2DE2196CE15DF05A7
:10174000B0F38D2DE6DDDF91CF911F910F91FF90CA
:10175000EF90DF90BF90AF909F908F9008951F9370
:10176000CF93DF932091290530912A05232B01F196
:10177000182FC82FD0E0CC0FDD1FFE01E658FD4F1B
:10178000409106055091070560E070E080819181ED
:101790000E94C432C05ADD4F4091060550910705A2
:1017A00060E070E0888199810E94C432812FB1DDB0
:1017B000DF91CF911F9108952F923F924F925F92A8
:1017C0006F927F928F929F92AF92BF92CF92DF9251
:1017D000EF92FF920F931F93CF93DF93CDB7DEB7B6
:1017E00027970FB6F894DEBF0FBECDBF89832801BF
:1017F0003901CA82DB82EC82FD824617570728F442
:10180000962F872FBA01492F582F80912905909143
:101810002A05009709F4DEC07F836E838617970739
:1018200010F49F838E831A018417950708F41C0116
:10183000F10131962E813F81E21BF30B4A815B81DE
:1018400048595E4F441955099A01A3E8BDE20E9428
:10185000D5300024880F991F001C880F991F001C89
:10186000892F902D68E671E0869F9001879F300D4B
:10187000969F300D1124421B530B24E6249FC00178
:10188000259F900D1124BF010E946A306B014B010E
:101890003197B9F4460E571EB20180E090E012E392
:1018A000E12EF12C00E010E024E630E040E050E0D2
:1018B00067DB9B01AC0100E06E817F8189812FDEB7
:1018C00087C012E3E12EF12C00E010E024E630E0C6
:1018D00040E050E0C301B20153DB9B01AC0100E0EA
:1018E0006E817F8189811BDE6E817F816F5F7F4F7B
:1018F0007F836E836215730508F056C024E6249D2D
:10190000C001259D900D1124C69E5001C79EB00CAC
:10191000D69EB00C1124A80EB91E0F2EF0E1CF2ECA
:10192000F7E2DF2EF02D96012858334136952795A2
:1019300036952795ABE7B4E10E94D530969587950B
:101940007C0100E010E096013695279536952795A5
:101950000E94D530969587952C01612C712C9501AC
:1019600036952795369527950E94D530969587957B
:10197000BC0168597E4F80E090E0A301920100DB3A
:101980009B01AC0100E06E817F818981C8DD8E8181
:101990009F8101969F838E83A80CB91C96016901D3
:1019A0008215930508F4BFCF12E3E12EF12C00E07D
:1019B00010E024E630E040E050E06A817B818C81D9
:1019C0009D81DEDA9B01AC0100E0B1018981A7DDD8
:1019D00089819FDC27960FB6F894DEBF0FBECDBF7E
:1019E000DF91CF911F910F91FF90EF90DF90CF90FB
:1019F000BF90AF909F908F907F906F905F904F902F
:101A00003F902F900895AF92BF92CF92DF92EF92C6
:101A1000FF920F931F93CF93DF93662309F46CC05B
:101A2000C0912905D0912A05209709F465C0182F87
:101A3000C62E062E000CDD08CC15DD0510F48FDE59
:101A40005BC016167CF0062E000C770B77231CF477
:101A50007195619571095B017E01E61AF70AC12C47
:101A6000D12C27C02197E62E660FFF08CE15DF0583
:101A70007CF0BE016C197D09812FDFDB9B01AC017D
:101A800000E0BE01812F4BDD2197CE15DF058CF7DD
:101A90001E141F047CF5C0E0D0E000E020E030E040
:101AA000A901BE01812F3BDD2196CE15DF05A9F7E7
:101AB00021C0B5016C0D7D1D812FBFDB9B01AC01E9
:101AC00000E0B601812F2BDD8FEFC81AD80AEC1485
:101AD000FD0478F7EC16FD0668F400E020E030E045
:101AE000A901B701812F1BDD8FEFE81AF80AEC1668
:101AF000FD0698F3812F0DDCDF91CF911F910F919F
:101B0000FF90EF90DF90CF90BF90AF9008952F920D
:101B10003F925F926F927F928F929F92AF92BF920D
:101B2000CF92DF92EF92FF920F931F93CF93DF93A9
:101B300000D0CDB7DEB7582E6DB67EB6662309F459
:101B4000F3C0E0902905F0902A05E114F10409F4AE
:101B5000EBC0862F660F990BB7010E946A301816EA
:101B60000CF05EC02DB63EB6C82E880FDD084601CB
:101B7000C601880F991F880F991F2DB73EB7281BE4
:101B8000390B0FB6F8943EBF0FBE2DBF8DB79EB771
:101B900001969A8389831C141D040CF0B7C0870139
:101BA0000C191D095C01B801852D47DBF501619316
:101BB0007193819391935F010F5F1F4FE016F106C0
:101BC00091F79CC0B70168197909852D36DB9B0117
:101BD000AC0100E0B701852DA2DCF1E0EF1AF108BD
:101BE000EC14FD047CF71C141D04A4F4A980BA8035
:101BF000E12CF12CF50121913191419151915F013D
:101C000000E0B701852D8BDCFFEFEF1AFF0AEC1423
:101C1000FD0484F30FB6F8943EBE0FBE2DBE6BC01C
:101C20002DB63EB6082E000C990B99231CF4919505
:101C3000819591098C014C01880F991F880F991F7C
:101C40002DB73EB7281B390B0FB6F8943EBF0FBE19
:101C50002DBF8DB79EB701969A8389831016110602
:101C60000CF05CC05C01C12CD12CB601852DE5DAED
:101C7000F50161937193819391935F01FFEFCF1A07
:101C8000DF0A0C151D0589F749C0B4016C0D7D1DD7
:101C9000852DD3DA9B01AC0100E0B601852D3FDC38
:101CA0002FEFC21AD20AAC14BD0478F76501AE1446
:101CB000BF04E0F48E189F08A80CB91CAA0CBB1C2A
:101CC000AA0CBB1C89819A81A80EB91EF50121912D
:101CD0003191419151915F0100E0B601852D1FDCEA
:101CE000FFEFCF1ADF0ACE14DF0480F30FB6F894AB
:101CF0003EBE0FBE2DBE852D0CDB16C021E0E21AC4
:101D0000F108EC14FD040CF05DCF70CF31E0E31A64
:101D1000F108EC14FD040CF47DCF54CF5701A81842
:101D2000B908C12CD12CB1CF0FB6F8947EBE0FBE2E
:101D30006DBE0F900F90DF91CF911F910F91FF908B
:101D4000EF90DF90CF90BF90AF909F908F907F905B
:101D50006F905F903F902F9008952F923F924F92F7
:101D60005F926F927F928F929F92AF92BF92CF922B
:101D7000DF92EF92FF920F931F93CF93DF9300D0E8
:101D80001F92CDB7DEB789834617570728F4962FE1
:101D9000872FBA01492F582F8091290590912A0544
:101DA000009709F49AC07B836A838617970710F41B
:101DB0009B838A838417950708F4AC0110161106DB
:101DC00074F08981CCDC00E020E03FEF4FEF50E081
:101DD0006A817B818981A3DB89819BDA7EC07A015C
:101DE0006A817B81E61AF70A57017FEFA71AB70AC3
:101DF000A901332324F444275527421B530B4A9D42
:101E0000C0014B9D900D5A9D900D1124B8010E9468
:101E10006A304B01672B21F0A114B104F9F45BC0C7
:101E200082E0A816B10408F456C06A817B816F5F16
:101E30007F4F7B836A83E60EF71E00E020E030E0F0
:101E4000A9016A817B8189816ADB8A819B810196F4
:101E50009B838A83E816F90681F73DC0C12CD12CFB
:101E6000612C712C212C312C21012A9468147904C5
:101E7000D8F4C601B7010E946A309B013327C9011B
:101E8000A0E0B0E09C0111270027D201C101861B10
:101E9000970BA109B109A9019801282B00E06A81DB
:101EA0007B8189813CDB08C000E020E030E0A901B3
:101EB0006A817B81898133DB7FEF671A770A8FEF35
:101EC000C80ED11C6A817B816F5F7F4F7B836A83E1
:101ED0006A147B0458F289811CDA0F900F900F90DE
:101EE000DF91CF911F910F91FF90EF90DF90CF90F6
:101EF000BF90AF909F908F907F906F905F904F902A
:101F00003F902F90089504C0615071098109910993
:101F10006115710581059105B9F708959F92AF92FA
:101F2000BF92CF92DF92EF92FF920F931F93CF93C6
:101F3000DF93ECE2F5E010821182128213821482A8
:101F4000FC01E95CFA4F9080FC01E35CFA4FC08130
:101F500061E070E0892D0E94052960E0892D0E94D2
:101F60005E29CC23A1F1A12C0F2EF4E2BF2EF02D7F
:101F70000F2EF4EFCF2EF02DD12CE12CF12C00E020
:101F800010E02C2F30E040E050E060E070E080E0B6
:101F900090E00E94F4300F2EF6E0AF2EF02DB12C21
:101FA000C12C0E94473129513C4F4F4F5F4F6F4F1B
:101FB0007F4F8F4F9F4F0E94F02E20E030E04AE786
:101FC00054E40E941A2E0E94872E9DDF05C063E014
:101FD00070E080E090E097DF60E070E0892D0E9483
:101FE000052988E290E00E94A11EC0E9D1E003C06B
:101FF000219709F448C0892D0E948D298823C1F3B7
:1020000003C0219719F442C0C0E9D1E0892D0E9494
:102010008D298111F6CF08E2B12C10E803C0219779
:1020200019F437C0C0E9D1E0892D0E948D29882399
:10203000B1F30E94391E6B017C01C0E9D1E002C0FE
:10204000219751F1892D0E948D298111F9CF0E948C
:10205000391EDC01CB018C199D09AE09BF09899796
:10206000A105B10538F0EB2DF0E0E45DFA4F808179
:10207000812B8083169511F4B39410E8015091F6EA
:1020800080E090E00BC08EEF9FEF08C08EEF9FEFD7
:1020900005C08EEF9FEF02C08EEF9FEFDF91CF91D3
:1020A0001F910F91FF90EF90DF90CF90BF90AF9076
:1020B0009F9008951092500510924F0510924D0573
:1020C00010924C05ECE4F5E085E495E01292E817F7
:1020D000F907E1F70895CF93C82F60E00E94020747
:1020E0008C2F90E0FC01E550FE4F208120934E059F
:1020F000FC01E55DFD4FE081F0E0EE0FFF1FE15FC9
:10210000FD4F808191819093440580934305D2DFF8
:10211000CF910895FF920F931F93CF93DF93D091A8
:102120004E050091430510914405F894F801818112
:10213000FD2EF0948F2181837894CCE702C0C150AA
:1021400041F182E090E00E94A11EF80180818D2380
:10215000B1F3F89482818F21828381818D2B8183D9
:10216000789480EE91E00E94A11EF894F80181819C
:10217000F822F18286E490E00E94A11EF80180819D
:10218000D823C1E009F0C0E078948AE991E00E9488
:10219000A11E8C2FDF91CF911F910F91FF90089579
:1021A0000F931F93CF93DF9300914E05C09143058A
:1021B000D0914405F8948981802B89838A81102FDE
:1021C000109581238A8383E090E00E94A11E89817B
:1021D000182319838AE090E00E94A11EC881789498
:1021E00085E390E00E94A11EC02381E009F480E015
:1021F000DF91CF911F910F9108950F931F93CF936C
:10220000DF93C8E0D0E000E011E0CADF8111012BCC
:10221000110F2197D1F7802FDF91CF911F910F914F
:1022200008951F93CF93DF9310914E05C0914305FE
:10223000D091440580FF16C0F8948A81912F909523
:1022400089238A838981812B89838AE090E00E9497
:10225000A11E8A81182B1A83789487E390E00E944C
:10226000A11E15C0F8948A81912F909589238A83A5
:102270008981812B898381E490E00E94A11E8A815B
:10228000182B1A83789485E090E00E94A11EDF91BC
:10229000CF911F910895DF92EF92FF920F931F93BA
:1022A000CF93DF93F82ED62E08E010E0C1E0D1E006
:1022B000E12C8D2F9F2D9C2309F48E2DB2DFCC0FA6
:1022C00001501109B1F7D11013C0F894E091430502
:1022D000F0914405918180914E05809598239183DA
:1022E000E0914305F091440592818923828378949B
:1022F000DF91CF911F910F91FF90EF90DF900895A4
:102300000F931F93CF93DF938C0160E085E5C3DFCC
:10231000E801085F1F4F60E08991BDDFC017D1075A
:10232000D1F7DF91CF911F910F910895BF92CF9276
:10233000DF92EF92FF920F931F93CF93DF93209141
:102340004F05211160C0F92EE82EE4DE811107C08F
:102350001092500510924F0510924D0573C060E029
:1023600080EF99DFD1E010E0C12C01E0DD24D394AF
:10237000B12C16DFC82F14DFC13009F053C08130F3
:10238000E1F437C080915005081750F4E12FF0E0D8
:10239000EB5BFA4F80818D23CD2D29F4CB2D03C02B
:1023A000CD2D0813CB2DC11106C0093008F03DC05A
:1023B00000934D053AC0C13049F4E12FF0E0EB5BEA
:1023C000FA4F80818D2B8083CD2D09C0E12FF0E065
:1023D000EB5BFA4F30812D2F2095232320838C2F08
:1023E00020DF0F5FDD0F11F41F5FD1E0183008F41C
:1023F000C0CF013440F0C0925005C11018C081E038
:1024000080934F0514C01092500510924F05109202
:102410004D0580E017C081918D93E217F307D9F73E
:1024200081E010C0C813D2CFADCFC02ECFCF8091E6
:102430004505882341F3E5E4F5E0AE2DBF2D2DE4FD
:1024400035E0E9CFDF91CF911F910F91FF90EF9091
:10245000DF90CF90BF9008952FEF260F662361F095
:10246000A82FB92F80E0ED91E827F0E0E058FD4F6C
:1024700084912150C0F7089580E00895AF92BF92F3
:10248000CF92DF92EF92FF920F931F93CF93DF9340
:10249000CDB7DEB764970FB6F894DEBF0FBECDBFE1
:1024A0008C01CE010D9642DF811102C003DE34C0E3
:1024B00067E0CE010D96D0DF9C8989132DC08D85F4
:1024C000803111F0883241F525DECE010D9618DFFE
:1024D00061E084E4E0DE1EDECE010D9611DF60E0F7
:1024E0008EEBD9DECE0101966C015E019AE0A90E59
:1024F000B11C760182DED7018D937D01AA15BB0543
:10250000C9F7D8DDF801075F1F4FD6018D916D0126
:102510008193E017F107C9F764960FB6F894DEBF10
:102520000FBECDBFDF91CF911F910F91FF90EF9024
:10253000DF90CF90BF90AF9008958F929F92AF920F
:10254000BF92CF92DF92EF92FF920F931F93CF93A0
:10255000DF9300D01F92CDB7DEB706C061E070E018
:1025600080E090E00E945F1E809154050E948D29BA
:102570008111F4CFCE0101967C016E0192E0C91A5F
:10258000D108812C912C5401839437C061E0809153
:1025900051050E945E29809154050E948D2988234F
:1025A00079F0F7012281D501C401002E04C0880F03
:1025B000991FAA1FBB1F0A94D2F7822B82830FC0D8
:1025C000D501C401002E04C0880F991FAA1FBB1F8C
:1025D0000A94D2F78095F70192818923828360E083
:1025E000809151050E945E290150110978F621E081
:1025F000E21AF108CE14DF0419F007E010E0C6CFAC
:1026000061E0809151050E945E2960E08091510552
:102610000E945E292B816A81862F90E0A0E0B0E0C5
:10262000BA2FA92F982F8827A22B2981822BBC0192
:10263000CD0180580F900F900F90DF91CF911F9197
:102640000F91FF90EF90DF90CF90BF90AF909F9051
:102650008F900895CF92DF92EF92FF92CF93C9E1CE
:10266000C12CD12C760169DFC60ED71EE81EF91EDB
:10267000C150C9F7C701B60129E130E040E050E0A0
:102680000E94B330CA01B901CF91FF90EF90DF9063
:10269000CF900895CF93DF93962FEA01809354054E
:1026A0006093510561E070E0892F0E94052960E088
:1026B00070E0809154050E94052961E080915105E8
:1026C0000E945E2984E690E00E94A11E60E0809155
:1026D00051050E945E29BEDFBDDF609355057093F2
:1026E00056058093570590935805D0935305C09392
:1026F0005205DF91CF910895CF92DF92EF92FF9232
:1027000020915405FC012083A5DFC0905505D09091
:102710005605E0905705F09058056C197D098E0913
:102720009F090E94B52E6B017C016091520570914A
:10273000530580E090E00E94B32E9B01AC01C701DD
:10274000B6010E941A2EFF90EF90DF90CF9008956F
:102750001F920F920FB60F9211242F933F934F9316
:102760005F936F937F938F939F93AF93BF93EF93F9
:10277000FF9380919E0288232CF410928500109282
:1027800084002DC020919E02022E000C330B8091FC
:10279000140190E02817390714F580919E02082E45
:1027A000000C990BFC01EE0FFF1F8E0F9F1FFC0109
:1027B000E156FD4F808186FF12C080919E02082E57
:1027C000000C990BFC01EE0FFF1F8E0F9F1FFC01E9
:1027D000E156FD4F808160E08F730E945E298091F9
:1027E0009E028F5F80939E0220919E02022E000C1B
:1027F000330B8091140190E0281739070CF040C08A
:1028000080919E028C30E4F5209184003091850007
:1028100080919E02082E000C990BFC01EE0FFF1F09
:102820008E0F9F1FFC01E156FD4F81819281820F27
:10283000931F909389008093880080919E02082EB8
:10284000000C990BFC01EE0FFF1F8E0F9F1FFC0168
:10285000E156FD4F808186FF2EC080919E02082E9A
:10286000000C990BFC01EE0FFF1F8E0F9F1FFC0148
:10287000E156FD4F808161E08F730E945E291BC08D
:102880008091840090918500049680349C4938F4AE
:1028900080E49CE9909389008093880009C080912E
:1028A000840090918500049690938900809388001D
:1028B0008FEF80939E02FF91EF91BF91AF919F9117
:1028C0008F917F916F915F914F913F912F910F90D9
:1028D0000FBE0F901F901895EF92FF920F931F93CA
:1028E000CF93C82F7B018A0161E070E00E94052927
:1028F000EFE9F2E0CF738081807CC82BC08320E2B7
:1029000032E02E193F09C90199230CF403969595DD
:1029100087959595879580939D0220E639E0201B49
:10292000310BC90199230CF40396959587959595DC
:10293000879580939C0280919F0286FD1FC081E055
:1029400090E0FC01EE0FFF1FE80FF91FE156FD4F6D
:10295000208126FD13C001968C30910591F71092CD
:10296000800082E0809381001092850010928400A4
:10297000B19AEFE6F0E0808182608083EFE9F2E0D7
:1029800080818064808380E0CF911F910F91FF90C0
:10299000EF900895AC0180919D0228E830E0281B5B
:1029A000310987FD3395C901880F991F880F991F39
:1029B000481759078CF080919C0228E532E0281BCB
:1029C000310987FD3395220F331F220F331FCA01B0
:1029D000241735070CF4C9012FB7F8940297092E74
:1029E000000CAA0BBB0B880F991FAA1FBB1F8E7F61
:1029F000BF719093A1028093A0022FBF0895CF9240
:102A0000DF92EF92FF92803222E092070CF040C0FA
:102A1000BC01992314F460E070E080919D02A8E865
:102A2000B0E06D01C81AD10887FDD394D601AA0F72
:102A3000BB1FAA0FBB1F6D01BB0FEE08FF088091E3
:102A40009C0228E532E0281B310987FD3395220FCF
:102A5000331F220F331FC901330FAA0BBB0B9C017D
:102A6000AD012C193D094E095F09DB01653B71057C
:102A700014F0A4EBB0E00E94EE3024EB30E040E034
:102A800050E00E94B330C20ED31EE41EF51EC601F4
:102A900081DFFF90EF90DF90CF9008958CE08093DE
:102AA000140180E090E028EB3BE0FC01EE0FFF1FFB
:102AB000E80FF91FE156FD4F3283218301968C30D8
:102AC000910599F708958F929F92AF92BF92CF92FE
:102AD000DF92EF92FF92CF93C82F69017A01232BE7
:102AE000242B252BE1F0AB0162E30E94E2290E9436
:102AF000B92C4B015C010E94B92CDC01CB01881977
:102B00009909AA09BB098C159D05AE05BF0598F367
:102B100040E050E062E38C2F0E94E22906C0F89466
:102B2000AB0162E30E94E2297894CF91FF90EF908D
:102B3000DF90CF90BF90AF909F908F900895CF93EC
:102B4000DF93EC01E0919B05F0919C05309701F13A
:102B50009091C8028091C7029817D0F016161706F8
:102B60008CF420E030E090E0DE01A90FB11D4C9123
:102B7000D901A55ABA4F4C939F5F292F30E02617F1
:102B8000370794F3CB011092C8026093C7020995EE
:102B9000DF91CF910895E0915905F0915A05309752
:102BA00029F01092C5021092C4020995089510925E
:102BB000360381E0809334031092330361E082E0B6
:102BC0000E945E2961E083E00E945E29E9EBF0E06B
:102BD00080818E7F808380818D7F808388E4809355
:102BE000B80085E48093BC000895413208F04CC0E1
:102BF000909136039111FCCF31E03093360320934E
:102C000034032FEF2093C90210920E03240F209358
:102C10000D033093350320913503880F822B809369
:102C2000350380913303813081F410923303ABEB91
:102C3000B0E0ECEBF0E0809135038C93808183FD74
:102C4000FACF85EC8093BC0003C085EE8093BC0076
:102C5000809136038130E1F380910E03841710F4E4
:102C600040910E03442389F0EFE0F3E0A62FB72F45
:102C70002FEF240F30E0205F3C4F81918D93E217BE
:102C8000F307D9F7942F01C090E0892F08950F938F
:102C9000413208F057C0309136033111FCCF92E039
:102CA00090933603009334039FEF9093C9021092E0
:102CB0000E0340930D03442371F0FB01AFE0B3E03A
:102CC000415050E04F5F5F4F640F751F91919D938E
:102CD000E617F707D9F71092350390913503880F5F
:102CE000892B8093350380913303813081F41092D6
:102CF0003303ABEBB0E0ECEBF0E0809135038C9369
:102D0000808183FDFACF85EC8093BC0003C085EE03
:102D10008093BC00222341F080913603823021F45D
:102D2000809136038230E1F38091C9028F3F79F0C0
:102D30008091C902803241F08091C902803331F024
:102D400034E005C031E003C032E001C033E0832F3E
:102D50000F9108954091EB02262F30E0240F311D92
:102D600021323105ECF4209136032430D9F4662366
:102D700081F0A82FB92F80E090E03091EB022D91E7
:102D8000FC01E351FD4FE30FF11D208301968617EF
:102D9000A0F38091EB02680F6093EB0280E008954E
:102DA00081E0089582E0089585ED8093BC00ECEB0E
:102DB000F0E0808184FDFDCF10923603089585EC0C
:102DC0008093BC001092360308951F920F920FB6A5
:102DD0000F9211242F933F934F935F936F937F93A1
:102DE0008F939F93AF93BF93EF93FF938091B9001D
:102DF000E82FE87F8E2F90E0893C910508F0EDC028
:102E0000FC01EA5AFF4F0C94CF3080913503809338
:102E1000BB0085EC8093BC00E0C090910E038091D4
:102E20000D03981780F4E0910E0381E08E0F8093DC
:102E30000E03F0E0E15FFC4F80818093BB0085ECE6
:102E40008093BC00CAC080913403882311F0ACDFAA
:102E5000C4C081E08093330384EA8093BC00109265
:102E60003603BBC080E28093C9029EDFB6C080E318
:102E70008093C90299DFB1C088E38093C9029FDFC4
:102E8000ACC0E0910E0381E08E0F80930E03809121
:102E9000BB00F0E0E15FFC4F808390910E038091D6
:102EA0000D03981720F485EC8093BC0096C085E84C
:102EB0008093BC0092C0E0910E0381E08E0F80935E
:102EC0000E038091BB00F0E0E15FFC4F80838091B6
:102ED0003403882311F068DF80C081E080933303DE
:102EE00084EA8093BC001092360377C05DDF75C022
:102EF00083E0809336031092CA0285EC8093BC0075
:102F00006CC08091CA02803280F4E091CA0281E0F4
:102F10008E0F8093CA028091BB00F0E0E553FD4F15
:102F2000808385EC8093BC0058C085E88093BC000A
:102F300054C045DF8091CA02803230F4E091CA0269
:102F4000F0E0E553FD4F10826091CA0270E0E0911D
:102F50002F03F09130038BEC92E009951092CA0296
:102F60003CC085E88093BC0038C084E08093360381
:102F70001092EC021092EB02E0913103F0913203D7
:102F800009958091EB02811105C081E08093EB02ED
:102F90001092ED02E091EC0281E08E0F8093EC0242
:102FA000F0E0E351FD4F80818093BB009091EC02F3
:102FB0008091EB02981720F485EC8093BC000DC043
:102FC00085E88093BC0009C085EC8093BC0010921A
:102FD000360303C01092C902E7DEFF91EF91BF9163
:102FE000AF919F918F917F916F915F914F913F91A1
:102FF0002F910F900FBE0F901F9018951092C8023E
:103000001092C7021092C5021092C402D0DD8BEC60
:1030100095E190933203809331038FE995E190938A
:10302000300380932F030895462F613208F040E269
:1030300021E06BE575E0D9DD1092C8028093C702EC
:10304000089591E09093C3028093C6021092C50246
:103050001092C40208950F93CF93C82F0C2F21E034
:103060004091C4026BE775E08091C60210DE90913A
:10307000C402992311F08111F1CF1092C502109270
:10308000C4021092C302CF910F910895CF93DF93A2
:103090001F92CDB7DEB789838091C3028823A1F048
:1030A0008091C4028032B8F48091C502E82FF0E02C
:1030B000E558FA4F998190838F5F8093C502809382
:1030C000C40281E090E009C061E0CE01019642DED9
:1030D00081E090E002C080E090E00F90DF91CF911E
:1030E00008958091C70290E02091C802821B910947
:1030F00008959091C8028091C702981750F4E92F63
:10310000F0E0E55AFA4F208130E09F5F9093C802CB
:1031100002C02FEF3FEFC90108958F929F92AF92A7
:10312000BF92CF92DF92EF92FF92CF93DF9390E026
:10313000FC01E554FA4FD081FC01E356FA4FC081FF
:10314000880F991F880F991FFC01ED55FA4FC08019
:10315000D180E280F3802D2F277081E090E0AC01D8
:1031600002C0440F551F2A95E2F79A01ED2FF0E0B7
:10317000F695E795F695E795F695E795AF01440F37
:10318000551FE40FF51FB096322F3095428134233E
:1031900032833181232B2183EC2FF0E0F695E795E4
:1031A000F695E795F695E7959F01220F331FE20FFD
:1031B000F31FB0962C2F277002C0880F991F2A95F5
:1031C000E2F780959181982391839281892382836C
:1031D00060E08D2F0E945E2982E090E0B2D561E030
:1031E0008D2F0E945E298AE090E0ABD560E08D2FA4
:1031F0000E945E293ED54B015C018C2F0E948D29D7
:1032000081110CC036D5DC01CB0188199909AA09B6
:10321000BB09C816D906EA06FB0678F72AD54B0182
:103220005C018C2F0E948D29882361F022D5DC015E
:10323000CB0188199909AA09BB09C816D906EA065B
:10324000FB0678F716D5681979098A099B0928E3DE
:1032500030E040E050E00E949130C901DF91CF9111
:10326000FF90EF90DF90CF90BF90AF909F908F90A6
:1032700008954091440350914503209142033091B9
:10328000430342175307BCF4E8EEF0E090819570D9
:10329000E9F39091E80092FD19C08093F1008091CC
:1032A00044039091450301968F739927892B19F454
:1032B0008EEF8093E800809144039091450301963E
:1032C000909345038093440381E0089580E008953E
:1032D000CF92DF92EF92FF920F931F93CF93DF93E2
:1032E0006C01C62FD42F862F880F8E5FC2DF83E03C
:1032F000C0DFD078CC23E1F08601C150EC2EF12C58
:103300008FEFE81AF80AEC0CFD1CDD2319F0F80128
:10331000849102C0F8018081ACDFC82F80E0A9DF72
:103320008C2339F00F5F1F4F0E151F0571F701C079
:1033300081E0DF91CF911F910F91FF90EF90DF908F
:10334000CF9008959093CD008093CC0088E1809336
:10335000C9008EE08093CA0008959FB79093C3057B
:10336000F89487708093E90008958091C3058FBF1A
:103370000895CF93F2DF8091E800C82FC07285FDD9
:1033800002C0F3DF05C0F1DF8091F200C0E4C81B8A
:103390008C2FCF9108952F923F924F925F926F9210
:1033A0007F928F929F92AF92BF92CF92DF92EF92D5
:1033B000FF920F931F93CF93DF9300D01F92CDB74F
:1033C000DEB78B834B01742E252E80914803882312
:1033D00009F49CC08091460380FF05C0E0EEF0E058
:1033E000808182608083072D122DC12C0F2EFAEF71
:1033F000DF2EF02D0F2EF8EEAF2EB12CF02D2B81FD
:103400002072622E8B81807489830F2EFAE35F2EE7
:10341000F02D33243394412C0F2EF1EFEF2EF12CAD
:10342000F02D6BC08B81A5DF8A83811108C0DA94EF
:10343000DD2009F46EC081E090E041D45EC0AA8135
:103440008A2F90E0081719070CF40A838B8185DF17
:10345000F501808185FF51C0FA810F1B110966209B
:1034600049F08F2F8150FF2371F1D7011C928150B9
:10347000E0F729C0BB81BB2334F02A812150EA81C7
:10348000E11115C020C02A812150FA81FF23D9F013
:10349000F401822F9491D7019C93815031968F3FF4
:1034A000C9F7822F90E00196880E991E0CC0F40196
:1034B000822F9191D7019C938150D8F7822F90E071
:1034C0000196880E991ECC2021F0F5015082C42C63
:1034D00013C0D5018C9185FD07C05C92C32C0115EA
:1034E000110551F0C42C08C00115110529F4B9814A
:1034F000BB2311F0F501508238DF0115110509F0E9
:1035000091CFC1108FCF872D922D05C08FEF9FEFE8
:1035100002C08FEF9FEF0F900F900F90DF91CF9130
:103520001F910F91FF90EF90DF90CF90BF90AF90E1
:103530009F908F907F906F905F904F903F902F90D3
:1035400008951092E900109245031092440390935D
:103550004303809342030895CF92DF92FF920F932B
:103560001F93CF93DF936A018078F82E8B01040FAD
:10357000151FEB010AC0FF2019F0FE01849101C064
:10358000888177DE2196882331F0C017D10799F71B
:103590008C2D9D2D02C08FEF9FEFDF91CF911F915A
:1035A0000F91FF90DF90CF900895EF92FF920F93CD
:1035B0001F93CF93DF937C016115710511F1AB016E
:1035C000A8EEB0E0C1EFD0E08BEF8A0141345105A5
:1035D00014F000E410E09C9192FFFDCFFB01E41B8E
:1035E000F50BEE0DFF1D9FEF900F002331F02881AA
:1035F0002083915031969F3FD1F78C93401B510B04
:1036000021F7CB01DF91CF911F910F91FF90EF90A8
:1036100008951F920F920FB60F921124EF92FF920E
:103620000F931F932F933F934F935F936F937F93CA
:103630008F939F93AF93BF93EF93FF93CF93DF93BA
:10364000CDB7DEB76297DEBFCDBF1092E9008091A3
:10365000E80083FF20C1FE013196A1EFB0E09E019A
:10366000275F3F4F8C9180833196E217F307D1F7A4
:1036700082EF8093E8009981992334F4E8EEF0E03A
:10368000808180FFFDCF03C08EEF8093E800892FFB
:10369000807609F0B6C08A8181110EC0903839F465
:1036A00080914703E1EFF0E080831082C6C0E1EF34
:1036B000F0E010821082C1C01B810C81212F30E00C
:1036C000302B813061F49111B8C02130310509F0FF
:1036D000B4C0809147038D7F80934703AEC0833091
:1036E00061F49111AAC02130310509F0A6C0809182
:1036F0004703826080934703A0C0853049F4E8EE19
:10370000F0E0808180FFFDCF10681093E30095C04A
:10371000863009F04BC0EF80F884023059F580E024
:1037200090E00FDF1986CE0109960E94B00229852C
:1037300089E0898782E08A878091440390914503DC
:1037400009969C878B872D8781E08E871F8680EA6C
:10375000888B8AEF898BC701F4DE49E050E0BE0117
:10376000675F7F4F80E0F8DE1A8ACE0142960E94A2
:10377000B00263C0C701E5DE013009F466C0033062
:1037800009F05FC0112309F463C0123031F440E83E
:1037900060E18EE993E09CDD4EC0113009F051C02C
:1037A00040E86BE082E993E093DD45C0873009F49F
:1037B00048C0883021F481E08093F1003EC0893018
:1037C000E1F5937009F03DC080911601811148C068
:1037D00010C0D7018C93DB013C939191DA019C934B
:1037E000ADEEB0E02C938F5F873019F0908191118E
:1037F000F0CFEAEEF0E08EE780831082109348036A
:103800001CC08F8198859DDE88E0FE013196DE0127
:10381000199601900D928A95E1F76D817E81611173
:1038200010C06D877E8729853A854B855C858F859D
:1038300098890E94C602882321F08EEF8093E800C9
:103840002AC081E28093EB0026C060E873E002C0EA
:103850006FEA73E0FB01449150E080E87DDEEDCF3C
:1038600081E08093E9008093EB00809116018093C2
:10387000EC0086E38093ED00E7E1F1E082E00F2EBB
:10388000F9EEEF2EF12CF02D6BEE70E031E04CEE06
:1038900050E026E3ABCF62960FB6F894DEBF0FBEC2
:1038A000CDBFDF91CF91FF91EF91BF91AF919F91EC
:1038B0008F917F916F915F914F913F912F911F91C8
:1038C0000F91FF90EF900F900FBE0F901F901895E3
:1038D0008093E9008091F200882319F08AE38093B5
:1038E000E80008951F920F920FB60F9211242F93A4
:1038F0003F934F935F936F937F938F939F93AF9378
:10390000BF93CF93EF93FF93E1EEF0E0C08180810E
:10391000837F8083C3FF0FC01092E90081E0809312
:10392000EB001092EC0082E38093ED0010924803CC
:1039300088E08093F000C2FF02C083E0C9DFC4FFCB
:1039400012C0E2EEF0E080818E7E81608083E1EE45
:10395000F0E080818F7E8083809146038E7E80613F
:103960008093460313C0C0FF11C0E2EEF0E08081F7
:103970008E7E80618083E1EEF0E080818E7E8083A8
:10398000809146038E7E816080934603FF91EF9184
:10399000CF91BF91AF919F918F917F916F915F91E7
:1039A0004F913F912F910F900FBE0F901F90189540
:1039B00081E08093D70080EA8093D80082E189BDBE
:1039C00009B400FEFDCF80E98093D8001092E0009A
:1039D000109248038CE08093E200789408958091DF
:1039E000480308952FB7F89480914803811104C0CB
:1039F0002FBF8FEF9FEF089582E08093E9008091C1
:103A0000E80085FD12C082FD04C00BC082FD04C029
:103A100008C0E8EEF0E09BE69083808185FFF6CF5A
:103A200004C02FBF8FEF9FEF08958091F100909118
:103A3000E80095FD03C09BE69093E8002FBF90E05F
:103A4000089508958091C000881F8827881F0895D1
:103A50000C94920308958091C6000895AF92BF928E
:103A6000CF92DF92EF92FF920F931F93CF93DF934A
:103A7000E82EF12CEE0CFF1CEE0CFF1CEE0CFF1CD4
:103A8000182F110F110F110FC0E0D0E000E022E05D
:103A9000E21AF108C62ED12CAA24A394B12CC70196
:103AA0008C0F9D1F4297B0F4C6010C2E02C0959555
:103AB00087950A94E2F780FF0DC0812F0E948D291F
:103AC000882341F0C5010C2E02C0880F991F0A946B
:103AD000E2F7082B21961F5FC830D10501F7802F30
:103AE000DF91CF911F910F91FF90EF90DF90CF90DA
:103AF000BF90AF9008955F926F927F928F929F9246
:103B0000AF92BF92CF92DF92EF92FF920F931F93EB
:103B1000CF93DF938A01FB015080452B09F04FC002
:103B20000FEF1FEF4CC06701F70181917F0190E01B
:103B30000C2E02C0880F991F0A94E2F785298F770F
:103B400087DF2FEF821A920AF601808190E09501BB
:103B50002C1B3D0B02C0959587952A95E2F7582EB0
:103B60002196C730D105A0F080169106C0F5852DAD
:103B70008F776EDFFFEF8F1A9F0A551C5524551C57
:103B80002797C730D10520F08016910680F327C013
:103B9000E614F70421F08016910628F223C020973E
:103BA00009F180169106F0F481E090E002C0880FE0
:103BB000991FCA95E2F7815085214ADF13C000970B
:103BC00089F07B013B01680E791EC0E0D0E0812CBA
:103BD000912C0F2EF7E0AF2EB12CF02DA4CFE614D0
:103BE000F704E9F2DF91CF911F910F91FF90EF90D1
:103BF000DF90CF90BF90AF909F908F907F906F900D
:103C00005F900895EF92FF920F931F93CF93DF93EE
:103C1000C82F162F7A0180EF1BDF8C2F19DF11239D
:103C200091F0E7011150012F10E00F5F1F4F0E0DB3
:103C30001F1D40E050E0BE0181E090E05CDF219676
:103C4000C017D107B1F787EF03DFDF91CF911F9145
:103C50000F91FF90EF900895FC0101900020E9F78B
:103C60003197BF01681B790BAC0181E7CBCF089579
:103C700008953FB7F8948091980490919904A09189
:103C80009A04B0919B0426B5A89B05C02F3F19F05C
:103C90000196A11DB11D3FBFBA2FA92F982F8827CC
:103CA000820F911DA11DB11DBC01CD01660F771FB3
:103CB000881F991F660F771F881F991F08958F927D
:103CC0009F92AF92BF92CF92DF92EF92FF926B01E1
:103CD0007C01CFDF4B015C01C114D104E104F1048C
:103CE00029F526C0C5DF10C021E0C21AD108E108BD
:103CF000F10888EE880E83E0981EA11CB11CC11447
:103D0000D104E104F104A1F0B4DFDC01CB01881996
:103D10009909AA09BB09883E9340A105B10520F77E
:103D2000C114D104E104F104E9F602C0A1DFECCF33
:103D3000FF90EF90DF90CF90BF90AF909F908F90CB
:103D400008958230910538F0880F991F880F991FC8
:103D500005970197F1F7089510927F061092560685
:103D6000109255061092CC051092CB0510920E06BB
:103D70001092CA0580E48093800608950F931F93E4
:103D8000CF93DF9300D000D0CDB7DEB78091C405CC
:103D90008823E9F007EC15E0F801608180E05EDE41
:103DA000F8011081182380911106181781F0812FD6
:103DB00090E09C838B8380E94BDE42E050E0BE01C3
:103DC0006D5F7F4F82E090E096DE10931106809148
:103DD000C5058823E9F007EC15E0F801618181E071
:103DE0003DDEF8011181182380911206181781F029
:103DF000812F90E09A83898381E92ADE42E050E0B6
:103E0000BE016F5F7F4F82E090E075DE1093120677
:103E10000F900F900F900F90DF91CF911F910F9106
:103E20000895CF93DF9300D0CDB7DEB77A8369834F
:103E3000803170F46115704458F4806E09DE42E000
:103E400050E0BE016F5F7F4F82E090E054DE06C01D
:103E50008FEFFEDD8FEFFCDD8FEFFADD0F900F901F
:103E6000DF91CF9108950F931F93CF93DF9300D0ED
:103E700000D000D0CDB7DEB702EF10E0143148F526
:103E8000063038F5812F0E94FF28823011F5202F4F
:103E900030E080914C0390E0002E02C0959587950C
:103EA0000A94E2F780FF15C086E0E7E2F1E0DE0168
:103EB000119601900D928A95E1F7E1E0F0E0EC0FA8
:103EC000FD1FE20FF31F80810E94BE29BC01802FDD
:103ED000A8DF1F5F0F5F143189F626960FB6F8949E
:103EE000DEBF0FBECDBFDF91CF911F910F9108951F
:103EF000CF92DF92FF920F931F93CF93DF93182FF0
:103F0000EB01F42E022F6F3F7F4F71F0812F99D874
:103F10008C2FBCD8802F9FD880914A0390914B035F
:103F2000009721F00EDF02C0C0E0D0E06F2D812F9E
:103F30007BD8CF2CD12CD5D8C816D9060CF0D1D827
:103F4000EDECF5E01083C183CCD8892B89F01C14EB
:103F50001D0474F4CFECD5E00F2D10E001531A4F7F
:103F6000C8D88993BED8892B19F0C017D107C1F7DB
:103F700062E06F0D4DEC55E087E744DEDF91CF91B5
:103F80001F910F91FF90DF90CF900895CF9380E025
:103F900009C08151823028F466E070E08C2F0E94C5
:103FA00005298C2FC1E0C80FC43199F781E08093B7
:103FB000490324D8CF910895EF92FF921F93CF9396
:103FC000DF9380919802909199029C012F5F3F4F5F
:103FD000309399022093980220919A0230919B028B
:103FE000281739070CF057C08091960290919702DC
:103FF000892B09F450C08091950290E00E948E0FA9
:10400000BC0190919502492F50E0FA01E95CFA4F0A
:10401000D081FA01EF5CFA4FC081109299021092A0
:104020009802909394029F5F90939502209196023C
:1040300030919702215031094217530714F0109222
:104040009502672B41F5ECE2F5E090818181980FB4
:104050008281980F8381980F81E02481921301C09F
:1040600080E0182F80EFF4DC85E6F2DC8D2FF0DCA9
:104070008C2FEEDCCCE2D5E00F2EF0E3EF2EF5E056
:10408000FF2EF02D8991E4DCCE15DF05D9F7812FC5
:10409000DFDC87EFDDDCDF91CF911F91FF90EF90A8
:1040A0000895CF93DF9380913C0390913D039C0151
:1040B0002F5F3F4F30933D0320933C0320913A0301
:1040C00030913B03281739070CF03EC010923D0396
:1040D00010923C038091400390914103892BA1F100
:1040E000809138031AD8EC012091380330913903BC
:1040F00020933703C90101969093390380933803C5
:10410000809140039091410301972817390724F0CB
:10411000109239031092380380EF9ADC83E698DC22
:10412000E0913703F0E0E554FA4F808191DC8C2F69
:104130008F778EDCCE01880F892F881F990B919580
:104140008F7786DC87EF84DCDF91CF9108951F9213
:104150000F920FB60F9211240F931F932F933F933B
:104160004F935F936F937F938F939F93AF93BF937F
:10417000EF93FF93E09A0E94B92C00910A051091E9
:104180000B0520910C0530910D05DC01CB01801B46
:10419000910BA20BB30B883C9105A105B10558F416
:1041A0000E94B92C60930A0570930B0580930C054F
:1041B00090930D050FC083E00E94C7040E94AF03D7
:1041C0000E94B92C60930A0570930B0580930C052F
:1041D00090930D05FF91EF91BF91AF919F918F91BA
:1041E0007F916F915F914F913F912F911F910F910F
:1041F0000F900FBE0F901F9018951F920F920FB641
:104200000F9211240F931F932F933F934F935F931C
:104210006F937F938F939F93AF93BF93EF93FF938E
:10422000E19A0E94B92C00910A0510910B0520918A
:104230000C0530910D05DC01CB01801B910BA20B0D
:10424000B30B883C9105A105B10558F40E94B92C27
:1042500060930A0570930B0580930C0590930D05F0
:104260000FC082E00E94C7040E94AF030E94B92CD5
:1042700060930A0570930B0580930C0590930D05D0
:10428000FF91EF91BF91AF919F918F917F916F912E
:104290005F914F913F912F911F910F910F900FBE02
:1042A0000F901F901895CF92DF92EF92FF920F938D
:1042B0001F93CF93DF93CDB7DEB7CD58D1090FB69B
:1042C000F894DEBF0FBECDBF80911506893779F512
:1042D0008091CB059091CC05039708F0D4C5C09090
:1042E0001D01D0901E01F60101900020E9F73197E1
:1042F0007F01EC18FD0880EFABDB89E7A9DB82E0EA
:10430000A7DB86E0A5DBE114F10471F08601EC0C7B
:10431000FD1C40E050E0B80181E090E0ECDB0F5F75
:104320001F4F0E151F05A9F787EF92DBACC59091C3
:10433000CB051FEF190F843609F407C270F48135DD
:10434000E9F020F48D3009F451C29DC58F3509F490
:1043500092C1823609F4B7C196C58637C1F038F4E8
:10436000893609F42BC1803709F461C18CC58837BF
:1043700009F40CC18A3709F435C185C580EF68DBC3
:1043800082E566DB81E064DB87EF62DB7CC5009160
:10439000170605FD78C50E94D715E5E1F6E0818195
:1043A000928196FB992790F921E02927087108301E
:1043B00051F118F4002341F066C5003109F442C000
:1043C000083109F483C05FC50E9421181330A0F0A2
:1043D00002E0202F30E0F901E95EF94F80818795F6
:1043E00088278795F901EA5EF94F9081890F0E942D
:1043F00046180E5F011768F381E00E942B1886E4CF
:1044000090E09FDC40C5163089F4E5E1F6E0948148
:10441000638170E030E8939F600D711D1124468127
:104420004795442747959581490F0AC0E5E1F6E095
:1044300044814795442747959381490F6FEF7FEF5C
:1044400057DD21C540911C01642F042E000C770B11
:104450006F5F7F4F6830710524F086E691E0FCDBEA
:1044600012C5163091F4E5E1F6E09481638170E0C5
:10447000A0E89A9F600D711D11249681392F379500
:10448000332737959581930F0BC0E5E1F6E09481D2
:10449000392F3795332737959381930F6FEF7FEF40
:1044A0004F5F40931C01042E000C550BFA01EE0FD8
:1044B000FF1FEE0FFF1F4E0F5F1FFA01E95AF94F62
:1044C00080837283618393832483DDC410911C01F4
:1044D00011168CF4612F012E000C770B6F5F7F4F4C
:1044E000161617060CF04EC090915706891709F45E
:1044F000C6C490E012C08FEF80931C01C4C4F901C0
:10450000EE0FFF1FEE0FFF1F2E0F3F1FF901E95A9D
:10451000F94F2081821709F4B3C49F5F292F30E03F
:104520002617370764F390E0ABC4983028F5A9014B
:104530004F5F5F4FDA01AA0FBB1FAA0FBB1FA40F6B
:10454000B51FA95AB94F8C91F901EE0FFF1FEE0F5D
:10455000FF1F2E0F3F1FF901E95AF94F8083119673
:104560002D913C9112973283218313968C9113974E
:10457000838314968C9184839F5F292F30E02617C4
:1045800037079CF2115010931C017DC4123080F04B
:10459000E5E1F6E02281818190E0B0E82B9F800D7B
:1045A000911D1124009721F090934B0380934A03AF
:1045B00080914903811167C4E9DC65C480EF48DA62
:1045C0008AE646DA13EF8FE70FE706C0163010F4DD
:1045D000812F01C0802F1F5F3BDA1630B9F787EFBC
:1045E00037DA51C4E5E1F6E08281218130E0E0E88C
:1045F0008E9F200D311D11243093200120931F0127
:104600002115310509F43FC488E290E0B9010E9408
:104610006A3070933B0360933A0380ED97E0B901F1
:104620000E946A3070939B0260939A022CC41530EA
:1046300008F429C4109116068EEF810F823108F01C
:1046400022C4E5E1F6E08581448150E030E8839FB3
:10465000400D511D11248381628170E090E8899F93
:10466000600D711D1124812F0E946C1464E070E0B4
:10467000812FCBD508C4E5E1F6E0918182819111CB
:1046800017C09681258130E0A0E89A9F200D311D4A
:104690001124032E000C440B550B9481638170E0B0
:1046A000B0E89B9F600D711D11240E946315EBC340
:1046B000913009F0E8C320E030E0A90160E070E04B
:1046C0000E946315E0C320914003309141032630DE
:1046D00031050CF0D8C3E5E1F6E0818180933F031A
:1046E000928190933E03D901AA0FBB1FAA0FBB1F53
:1046F000AD55BA4F6481438150E0E0E86E9F400DB4
:10470000511D1124052E000C660B770B4D935D9304
:104710006D937C931397F901E554FA4F8083F90167
:10472000E356FA4F90836CE070E06FD56CE070E078
:1047300080913E036AD58091400390914103019698
:1047400090934103809340039EC320919602309141
:104750009702263031050CF045C0E5E1F6E0818195
:104760009281492F50E04631510531F441E0F90181
:10477000E35CFA4F40830DC04B30510531F44AE001
:10478000F901E35CFA4F408304C087E791E064DA03
:104790007AC3F901E95CFA4F8083F901EF5CFA4FC3
:1047A00090836FE070E031D58091960290919702EE
:1047B0000E948E0F892B09F066C36091960270915A
:1047C00097026F5F7F4F709397026093960280917C
:1047D0009A0290919B020E947E3070939B0260939C
:1047E0009A0251C38CEA91E037DA4DC380911606E4
:1047F000FE0131969FE7DF011D929A95E9F78E3011
:1048000091F50E94D715F12C11E0812F0E942118FB
:1048100081E00E942B18811108C0E1E0F0E0EC0F6C
:10482000FD1FEF0DF11D1083F3941F5F1F3769F714
:1048300080EF0ED98DE00CD98EE00AD98F2D08D9E2
:10484000FF2071F08E010F5F1F4FF801EF0DF11D7A
:104850007F01D8018D918D01FBD8E016F106C9F7D3
:1048600087EFF6D810C38111B7C080911706813049
:1048700009F04FC0E0911806E0931505F0E0E9510A
:10488000FE4F2081822F90E096958795969587958B
:1048900096958795FC01EE0FFF1F8E0F9F1FFC0161
:1048A000B096277081E090E002C0880F991F2A958A
:1048B000E2F7809591819823918392818923828365
:1048C0000E94A10380911505823081F480914E03EE
:1048D0008111D9C281E080934E03F894E99AE9E608
:1048E000F0E08081886080837894CDC2833009F0C5
:1048F000CAC280914D038111C6C281E080934D03ED
:10490000F894E89AE9E6F0E0808182608083789408
:10491000BAC28111B8C2E5E1F6E0448150E060E03E
:1049200070E0032E3CE1440F551F661F771F3A9538
:10493000D1F7302D9581892F90E0A0E0B0E0072ECF
:1049400075E1880F991FAA1FBB1F7A95D1F7702DAB
:10495000842B952BA62BB72B468150E060E070E0AE
:10496000032E3EE0440F551F661F771F3A95D1F77F
:10497000302D482B592B6A2B7B2B878190E0A0E0B0
:10498000B0E0880F991FAA1FBB1F880F991FAA1F8D
:10499000BB1F880F991FAA1FBB1F880F991FAA1F33
:1049A000BB1F880F991FAA1FBB1F880F991FAA1F23
:1049B000BB1F880F991FAA1FBB1F842B952BA62BEB
:1049C000B72B20852F77BC01CD01622B20E230E090
:1049D00043810E94EA0557C2873109F028C18091BE
:1049E0001706811120C0E5E1F6E0F3800481B0E80C
:1049F0000B9F8001112485818F77082B80EF28D8A9
:104A00008DE026D887E124D822E54FEFB8018F2D1D
:104A10000E944C07811102C01BD802C081E018D847
:104A200087EF16D830C2813009F047C0E5E1F6E0E3
:104A3000008510E020E030E00F2EF5E1000F111F9F
:104A4000221F331FFA95D1F7F02D818590E0A0E069
:104A5000B0E0072E7EE0880F991FAA1FBB1F7A9532
:104A6000D1F7702D082B192B2A2B3B2B828590E038
:104A7000A0E0B0E0689416F8880F991FAA1FBB1F2A
:104A80001694D1F7082B192B2A2B3B2B83858F7774
:104A9000082B468170E8479FA001112487818F77FA
:104AA000482B648180E8689FB001112485818F774D
:104AB000682B83810E94570BE6C1823039F4E5E10F
:104AC000F6E0648183810E94340ADDC1833009F0FD
:104AD00078C0E5E1F6E0C484D12CE12CF12C0B2E5A
:104AE000B5E1CC0CDD1CEE1CFF1CBA95D1F7B02D46
:104AF000858590E0A0E0B0E0072E7EE0880F991F4A
:104B0000AA1FBB1F7A95D1F7702DC82AD92AEA2A85
:104B1000FB2A868590E0A0E0B0E0689416F8880F44
:104B2000991FAA1FBB1F1694D1F7C82AD92AEA2AAF
:104B3000FB2A87858F77C82A008510E020E030E0C7
:104B40000F2EF5E1000F111F221F331FFA95D1F729
:104B5000F02D818590E0A0E0B0E0072E7EE0880F88
:104B6000991FAA1FBB1F7A95D1F7702D082B192BFF
:104B70002A2B3B2B828590E0A0E0B0E0689416F8E9
:104B8000880F991FAA1FBB1F1694D1F7082B192B4A
:104B90002A2B3B2B83858F77082B468190E8499FF2
:104BA000A001112487818F77482B6481A0E86A9F38
:104BB000B001112485818F77682B83810E94DC0BE3
:104BC00062C1843039F4E5E1F6E0648183810E94BA
:104BD000030D59C1853039F4E5E1F6E06481838144
:104BE0000E94870D50C18630D1F4E5E1F6E00185E1
:104BF00010E0208530E04681B0E84B9FA0011124F1
:104C000087818F77482B648180E8689FB0011124E9
:104C100085818F77682B83810E94AD0E34C18730E8
:104C200009F031C1809118060E94AF0B2CC1893167
:104C300071F580911706893009F025C1F0901806AA
:104C40008F2D0E946B108E0100581F4F8CE0D801F1
:104C50001D928A95E9F7C8010E943E1280EF0E94DA
:104C6000281D8DE00E94281D89E10E94281D8F2D9E
:104C70000E94281DF80180810E94281DD8011196EC
:104C80008C910E94281D87EF0E94281DFCC0813254
:104C900009F09DC080911706863149F4E5E1F6E000
:104CA00045814E50648183810E941602ECC082319E
:104CB00009F0E9C08E0100581F4F8EE0F8011192F3
:104CC0008A95E9F7C8010E94470280EF0E94281DDB
:104CD0008DE00E94281D81E20E94281DD8018D913F
:104CE0009C91880F892F881F990B8F770E94281D10
:104CF000F80180818F770E94281DD80112968D912E
:104D00009C911397880F892F881F990B8F770E948A
:104D1000281DF80182818F770E94281DD8011496E2
:104D20008D919C911597880F892F881F990B8F77EC
:104D30000E94281DF80184818F770E94281DD801C8
:104D400016968D919C911797880F892F881F990B24
:104D50008F770E94281DF80186818F770E94281D79
:104D6000D80118968D919C911997880F892F881FCB
:104D7000990B8F770E94281DF80180858F770E94FC
:104D8000281DD8011A968D919C911B97880F892F09
:104D9000881F990B8F770E94281DF80182858F77D5
:104DA0000E94281DD8011C968D919C911D97880FFB
:104DB000892F881F990B8F770E94281DF801848501
:104DC0008F770E94281D87EF0E94281D5CC08332C8
:104DD00009F059C080911706873071F4E5E1F6E0DB
:104DE000458130E8439FA00111248681482B6481CE
:104DF00083810E944A1347C08A3009F044C0CE0123
:104E000080589F4F0E947C136B017C0120E030E0B2
:104E1000A9010CD7882324F4F7FAF094F7F8F0945A
:104E2000C701B60174D7162F072F80EF0E94281DE7
:104E30008DE00E94281D83E20E94281DC058DF4F8C
:104E40008881C058D0400E94281D802F0E94281DB4
:104E5000812F0E94281D20E030E048EC52E4C70179
:104E6000B6010E94A32F53D7862F64E60E945E30BE
:104E7000892F0E94281D87EF0E94281D04C090E002
:104E8000292F30E052CBC357DF4F0FB6F894DEBF67
:104E90000FBECDBFDF91CF911F910F91FF90EF908B
:104EA000DF90CF9008951F93CF93DF93182FEB01DE
:104EB0008091800690E068177907A0F0E0910805DE
:104EC000F0910905309799F081E080931406809164
:104ED0000F059091100509958091800690E0C81704
:104EE000D90738F4CB5ED94F188380E003C081E046
:104EF00001C081E0DF91CF911F910895CF92DF92A1
:104F0000EF92FF921F93CF93DF9390917F069923A7
:104F1000A9F0873F21F410927F06C5D968C160913E
:104F2000CB057091CC05BFDF8091CB059091CC056E
:104F300001969093CC058093CB0559C1609155069D
:104F4000709156066115710509F40CC188230CF4A3
:104F500009C1615071097093560660935506A3DF2D
:104F60008091550690915606892B09F040C1809199
:104F7000CA05882309F43BC1803D09F4E6C030F43A
:104F80008039B1F1803C09F4B9C0E9C0843F09F42B
:104F900053C0853F09F4A2C0803E09F0E0C0C09133
:104FA0000E06C43108F0DBC0E5E1F6E091819770B0
:104FB00080818F77E82EF12C40E8949FE00CF11C63
:104FC0001124D2818C2F1BD1833039F0843009F029
:104FD000C6C0C7010E94FF14C2C08EEF8C0F823181
:104FE00008F0BDC06D2F6F77A7018C2FEBD1B7C034
:104FF000E5E1F6E08081E180F12C50E8859FE00C4E
:10500000F11C112410910E06110F110F110FC0E0A9
:10501000D0E0CC24C394D12CB6010C2E02C0660F74
:10502000771F0A94E2F76E21812F48D121961F5FE6
:10503000C830D10589F793C0E5E1F6E0D081ED2EC7
:10504000F12CC1818C2FDBD08F3709F488C08EEF13
:105050008C0F823178F5E114F10421F09BE0E91620
:10506000F104A1F4EC2FE695E695E695F0E0E9531E
:10507000FA4F2C2F277081E090E002C0880F991F13
:105080002A95E2F79081892B808314C0EC2FE69556
:10509000E695E695F0E0E953FA4F2C2F277081E072
:1050A00090E002C0880F991F2A95E2F780959081C1
:1050B00089238083B7018C2FA8D0D23009F04FC04C
:1050C000CE5081E090E002C0880F991FCA95E2F7A8
:1050D00090914C03892B80934C0341C0C0911606DC
:1050E0008EEF8C0F8231D8F5D09115068C2F87D09A
:1050F0008130A9F56D2F8C2FE1D031C080910E0643
:10510000863068F590911506911110C021E030E0CD
:10511000A90102C0440F551F8A95E2F7CA01809584
:1051200090914C03892380934C0319C021E030E017
:10513000A90102C0440F551F8A95E2F7CA01909158
:105140004C03892B80934C030AC0E0910E06E33098
:1051500030F4F0E0EC53FA4F809115068083109202
:10516000CA0545C0803F28F4982F9F7090930E0683
:10517000807F803E79F038F4803C49F1803D39F100
:105180008039A9F511C0843F79F0853FB1F0803FA7
:1051900071F526C083E090E0909356068093550603
:1051A00080EE8093CA0523C022E030E0309356069B
:1051B000209355068093CA051AC082E090E0909330
:1051C00056068093550685EF8093CA0510C021E0EE
:1051D00030E030935606209355068093CA0507C0E9
:1051E00081E080937F061092CC051092CB05DF9171
:1051F000CF911F91FF90EF90DF90CF900895E82F0F
:10520000F0E0EF57F94F8081089590E0FC01EF57EF
:10521000F94F20812F3709F450C0FC01EF57F94FA7
:1052200060836115710521F06130710521F10895E8
:10523000FC01E15CFD4F8081E82FF0E0F695E795F9
:10524000F695E795F695E7959F01220F331FE20F3C
:10525000F31FB096282F277081E090E002C0880FDE
:10526000991F2A95E2F780959181982391839281E5
:10527000892382830895FC01E15CFD4FE0812E2F9C
:10528000277081E090E002C0880F991F2A95E2F70D
:10529000F0E0F695E795F695E795F695E7959F0189
:1052A000220F331FE20FF31FB096982F90952281A3
:1052B000922392839181892B81830895E82FF0E0D6
:1052C000E15CFD4FE0819E2F977021E030E0A90165
:1052D00002C0440F551F9A95E2F7CA01F0E0F69517
:1052E000E795F695E795F695E7959F01220F331F11
:1052F000E20FF31FB096342F3095228123232283AF
:105300002181242B2183662321F09281892B8283A2
:1053100008958281382332830895E82FF0E0E15C1C
:10532000FD4FE0812E2F277081E090E002C0880FB2
:10533000991F2A95E2F7F0E0F695E795F695E7953F
:10534000F695E7959F01220F331FE20FF31FDF0150
:105350009096982F909511962C911197292311963C
:105360002C93119712962C911297922312969C933C
:1053700090A1982381E009F480E00895EAE7F0E045
:10538000908190649083908194FFFDCF85FF04C04D
:1053900090E290937B0005C0EBE7F0E090819F7D69
:1053A00090838F71806480937C00EAE7F0E08081D5
:1053B00080648083808186FDFDCF8091780090910C
:1053C000790008954F925F926F927F928F929F9291
:1053D000AF92BF92CF92DF92EF92FF920F931F9303
:1053E000CF93DF93C82FD0E0FE01E15CFD4F208119
:1053F000922F9770A1E0B0E002C0AA0FBB1F9A9550
:10540000E2F730E03695279536952795369527951E
:10541000F901EE0FFF1FE20FF31FB0969A2F909540
:105420002281922392839181A92BA18361110CC0C7
:1054300045DFC295D295D07FDC27C07FDC27C15BDA
:10544000DC4F1F861E865BC0643669F461E036DF80
:10545000C295D295D07FDC27C07FDC27C15BDC4FB3
:105460001F861E864CC0FE01E295F295F07FFE2756
:10547000E07FFE27E15BFC4F88EC90E0938782871A
:1054800087E390E0958784874115510591F0FE01EF
:10549000E295F295F07FFE27E07FFE27E15BFC4F6F
:1054A0005387428781E090E097878687978386833A
:1054B00063C0FE01E295F295F07FFE27E07FFE27B4
:1054C000E15BFC4F178616861782168255C0328123
:1054D000277081E090E002C0880F991F2A95E2F7BB
:1054E000832B82830CC03281277081E090E002C060
:1054F000880F991F2A95E2F7809583238283EDE533
:10550000F3E040E050E080E090E020813181213004
:10551000310549F4DA01AA0FBB1FAB56B94F8D9381
:105520009C934F5F5F4F019670968431910569F7A8
:105530005093900440938F04F89410929000E1E906
:10554000F0E01082109295001092940081E090E0BB
:1055500090939900809398008081886080838081F7
:1055600081608083808182608083E1E7F0E08081D8
:1055700084608083789491C0E62EF12C8E01029590
:105580001295107F1027007F1027015B1C4FD80158
:105590001D96FC92EE921C971A962D913C911B97AA
:1055A000032E000C440B550B0F2EF0E98F2EF0ED5F
:1055B0009F2EF3E0AF2EB12CF02DC501B401D3D551
:1055C000CA01B9016150710981099109CED320E066
:1055D00030E048EC52E42ED32B013C01B701FF0C24
:1055E000880B990BC2D39B01AC01C301B201ABD4B0
:1055F0000DD588D3F8017183608322853385032E0E
:10560000000C440B550BC501B401ADD5CA01B9015D
:105610006150710981099109A8D320E030E048EC7C
:1056200052E408D36B017C01D8011C968D919C91AA
:105630001D9764E670E0681B790B072E000C880B41
:10564000990B93D39B01AC01C701B6017CD4DED486
:1056500059D3F80173836283808191819583848318
:1056600011861086C15CDD4F2881822F90E09695CF
:1056700087959695879596958795FC01EE0FFF1F68
:105680008E0F9F1FFC01B096D80116968D919C91AC
:105690001797892B09F01BCF26CFDF91CF911F9150
:1056A0000F91FF90EF90DF90CF90BF90AF909F90C1
:1056B0008F907F906F905F904F9008951F920F9200
:1056C0000FB60F921124AF92BF92DF92EF92FF922A
:1056D0000F931F932F933F934F935F936F937F93FA
:1056E0008F939F93AF93BF93CF93DF93EF93FF93EA
:1056F0000BC0809191049091920401969093920432
:10570000809391040E942B1D0E94221D8111F1CFD4
:10571000609195067091960640918F045091900487
:10572000141615060CF0EFC0A5E9B6E0440F551F9E
:105730004B56594F9D01AA24A394B12CE90189919C
:1057400099919E01FC01E295F295F07FFE27E07FA2
:10575000FE27E15BFC4F0084F185E02D319709F0D5
:1057600048C0FC01E15CFD4FD080ED2DF0E0F695E6
:10577000E795F695E795F695E7957F01EE0CFF1C0A
:10578000EE0DFF1DB0967C01EE0CFF1CEE0CFF1C15
:10579000EE0CFF1CEE0CFF1C8701015B1C4FE801A7
:1057A000EE80FF80EF2869F0F280CD2DC770850173
:1057B00002C0000F111FCA95E2F7E801CF29C2838A
:1057C0000DC0D281CD2DC770750102C0EE0CFF1C3B
:1057D000CA95E2F7CE2DC095CD23C283FC01E29598
:1057E000F295F07FFE27E07FFE27E15BFC4F1186FC
:1057F0001086EC01C295D295D07FDC27C07FDC27D4
:10580000C15BDC4FFB01E295F295F07FFE27E07F64
:10581000FE27E15BFC4F0C80DD81C02D0480F5810B
:10582000E02DEC17FD070CF0BC014217530709F0FF
:1058300085CF75C08D919D91FC01E295F295F07F29
:10584000FE27E07FFE27E15BFC4F24813581261B8C
:10585000370B35832483232B09F048C0FC01E295E4
:10586000F295F07FFE27E07FFE27E15BFC4F26816B
:1058700037812130310571F4FC01E295F295F07F1A
:10588000FE27E07FFE27E15BFC4F228133813583D9
:1058900024830DC0FC01E295F295F07FFE27E07FA6
:1058A000FE27E15BFC4F2081318135832483EC01AD
:1058B000C295D295D07FDC27C07FDC27C15BDC4F4F
:1058C0002E813F81FC01FF27E295F295F07FFE27B4
:1058D000E07FFE27E15BFC4F00871187902F812F2F
:1058E000232B11F09E2D8F2D9E838F834A175B07EC
:1058F00009F0A0CF709399006093980010929500E2
:10590000109294001CC062957295707F7627607F1C
:105910007627FB01E15BFC4F64817581EBCF6295DB
:105920007295707F7627607F7627FB01E15BFC4FE5
:105930006481758101E010E0E12CF12C7BCFFF91B7
:10594000EF91DF91CF91BF91AF919F918F917F9117
:105950006F915F914F913F912F911F910F91FF9008
:10596000EF90DF90BF90AF900F900FBE0F901F9001
:1059700018952FB7F89460919404709195048091D4
:105980009604909197042FBF08951F920F920FB61F
:105990000F9211242F933F938F939F93AF93BF93B5
:1059A0008091940490919504A0919604B0919704ED
:1059B0003091930423E0230F2D3720F40196A11D8D
:1059C000B11D05C026E8230F0296A11DB11D20932D
:1059D00093048093940490939504A0939604B093B9
:1059E00097048091980490919904A0919A04B091A1
:1059F0009B040196A11DB11D809398049093990476
:105A0000A0939A04B0939B04BF91AF919F918F9103
:105A10003F912F910F900FBE0F901F90189587E622
:105A200090E00E94A2190E94D81C0E94EF1C8823BB
:105A3000E1F30E94211D789484B5826084BD84B511
:105A4000816084BD85B5826085BD85B5816085BD79
:105A5000EEE6F0E0808181608083E1E8F0E0108292
:105A6000808182608083808181608083E0E8F0E0D3
:105A7000808181608083E1ECF0E0808184608083BC
:105A8000E0ECF0E080818160808387E880937A0099
:105A90000E94AC1E0E944E150E94F21C8F3F2FEFF9
:105AA000920709F02BDA0E94BE1E00919C0410910F
:105AB0009D0401151105F9F06CF080E090E020E004
:105AC000FC01E256FB4F10822F5F822F90E080177F
:105AD0009107B4F310929D0410929C04002359F096
